{
  "abi": [
    {
      "inputs": [
        {
          "internalType": "contract IERC721",
          "name": "_nftCollection",
          "type": "address"
        },
        {
          "internalType": "contract IERC20",
          "name": "_rewardsToken",
          "type": "address"
        }
      ],
      "stateMutability": "nonpayable",
      "type": "constructor"
    },
    {
      "inputs": [
        {
          "internalType": "address",
          "name": "_staker",
          "type": "address"
        }
      ],
      "name": "avialabeRewards",
      "outputs": [
        {
          "internalType": "uint256",
          "name": "",
          "type": "uint256"
        }
      ],
      "stateMutability": "view",
      "type": "function"
    },
    {
      "inputs": [],
      "name": "claimRewards",
      "outputs": [],
      "stateMutability": "nonpayable",
      "type": "function"
    },
    {
      "inputs": [
        {
          "internalType": "address",
          "name": "_user",
          "type": "address"
        }
      ],
      "name": "getStakedTokens",
      "outputs": [
        {
          "components": [
            {
              "internalType": "address",
              "name": "Staker",
              "type": "address"
            },
            {
              "internalType": "uint256",
              "name": "tokenId",
              "type": "uint256"
            }
          ],
          "internalType": "struct ERC721staking.StakedToken[]",
          "name": "",
          "type": "tuple[]"
        }
      ],
      "stateMutability": "view",
      "type": "function"
    },
    {
      "inputs": [],
      "name": "nftCollection",
      "outputs": [
        {
          "internalType": "contract IERC721",
          "name": "",
          "type": "address"
        }
      ],
      "stateMutability": "view",
      "type": "function"
    },
    {
      "inputs": [],
      "name": "rewardsToken",
      "outputs": [
        {
          "internalType": "contract IERC20",
          "name": "",
          "type": "address"
        }
      ],
      "stateMutability": "view",
      "type": "function"
    },
    {
      "inputs": [
        {
          "internalType": "uint256",
          "name": "_tokenId",
          "type": "uint256"
        }
      ],
      "name": "stake",
      "outputs": [],
      "stateMutability": "nonpayable",
      "type": "function"
    },
    {
      "inputs": [
        {
          "internalType": "uint256",
          "name": "",
          "type": "uint256"
        }
      ],
      "name": "stakerAddress",
      "outputs": [
        {
          "internalType": "address",
          "name": "",
          "type": "address"
        }
      ],
      "stateMutability": "view",
      "type": "function"
    },
    {
      "inputs": [
        {
          "internalType": "address",
          "name": "",
          "type": "address"
        }
      ],
      "name": "stakers",
      "outputs": [
        {
          "internalType": "uint256",
          "name": "amountStaked",
          "type": "uint256"
        },
        {
          "internalType": "uint256",
          "name": "timeOfLastUpdate",
          "type": "uint256"
        },
        {
          "internalType": "uint256",
          "name": "unclaimedRewards",
          "type": "uint256"
        }
      ],
      "stateMutability": "view",
      "type": "function"
    },
    {
      "inputs": [
        {
          "internalType": "uint256",
          "name": "_tokenId",
          "type": "uint256"
        }
      ],
      "name": "withdraw",
      "outputs": [],
      "stateMutability": "nonpayable",
      "type": "function"
    }
  ],
  "devdoc": {
    "kind": "dev",
    "methods": {},
    "version": 1
  },
  "evm": {
    "assembly": "    /* \"NFTstaking.sol\":311:6790  contract ERC721staking is ReentrancyGuard{... */\n  mstore(0x40, 0xc0)\n    /* \"NFTstaking.sol\":1303:1309  100000 */\n  0x0186a0\n    /* \"NFTstaking.sol\":1270:1309  uint256 private rewardsPerHour = 100000 */\n  0x01\n  sstore\n    /* \"NFTstaking.sol\":600:746  constructor(IERC721 _nftCollection, IERC20 _rewardsToken) {... */\n  callvalue\n  dup1\n  iszero\n  tag_1\n  jumpi\n  0x00\n  dup1\n  revert\ntag_1:\n  pop\n  mload(0x40)\n  sub(codesize, bytecodeSize)\n  dup1\n  bytecodeSize\n  dup4\n  codecopy\n  dup2\n  add\n  0x40\n  dup2\n  swap1\n  mstore\n  tag_2\n  swap2\n  tag_3\n  jump\t// in\ntag_2:\n    /* \"@openzeppelin/contracts/security/ReentrancyGuard.sol\":1701:1702   */\n  0x01\n    /* \"@openzeppelin/contracts/security/ReentrancyGuard.sol\":1806:1813   */\n  0x00\n    /* \"@openzeppelin/contracts/security/ReentrancyGuard.sol\":1806:1828   */\n  sstore\n  sub(shl(0xa0, 0x01), 0x01)\n    /* \"NFTstaking.sol\":669:699  nftCollection = _nftCollection */\n  swap2\n  dup3\n  and\n  0xa0\n  mstore\n    /* \"NFTstaking.sol\":710:738  rewardsToken = _rewardsToken */\n  and\n  0x80\n  mstore\n    /* \"NFTstaking.sol\":311:6790  contract ERC721staking is ReentrancyGuard{... */\n  jump(tag_10)\n    /* \"#utility.yul\":14:154   */\ntag_9:\n  sub(shl(0xa0, 0x01), 0x01)\n    /* \"#utility.yul\":98:129   */\n  dup2\n  and\n    /* \"#utility.yul\":88:130   */\n  dup2\n  eq\n    /* \"#utility.yul\":78:148   */\n  tag_12\n  jumpi\n    /* \"#utility.yul\":144:145   */\n  0x00\n    /* \"#utility.yul\":141:142   */\n  dup1\n    /* \"#utility.yul\":134:146   */\n  revert\n    /* \"#utility.yul\":78:148   */\ntag_12:\n    /* \"#utility.yul\":14:154   */\n  pop\n  jump\t// out\n    /* \"#utility.yul\":159:592   */\ntag_3:\n    /* \"#utility.yul\":268:274   */\n  0x00\n    /* \"#utility.yul\":276:282   */\n  dup1\n    /* \"#utility.yul\":329:331   */\n  0x40\n    /* \"#utility.yul\":317:326   */\n  dup4\n    /* \"#utility.yul\":308:315   */\n  dup6\n    /* \"#utility.yul\":304:327   */\n  sub\n    /* \"#utility.yul\":300:332   */\n  slt\n    /* \"#utility.yul\":297:349   */\n  iszero\n  tag_14\n  jumpi\n    /* \"#utility.yul\":345:346   */\n  0x00\n    /* \"#utility.yul\":342:343   */\n  dup1\n    /* \"#utility.yul\":335:347   */\n  revert\n    /* \"#utility.yul\":297:349   */\ntag_14:\n    /* \"#utility.yul\":377:386   */\n  dup3\n    /* \"#utility.yul\":371:387   */\n  mload\n    /* \"#utility.yul\":396:436   */\n  tag_15\n    /* \"#utility.yul\":430:435   */\n  dup2\n    /* \"#utility.yul\":396:436   */\n  tag_9\n  jump\t// in\ntag_15:\n    /* \"#utility.yul\":505:507   */\n  0x20\n    /* \"#utility.yul\":490:508   */\n  dup5\n  add\n    /* \"#utility.yul\":484:509   */\n  mload\n    /* \"#utility.yul\":455:460   */\n  swap1\n  swap3\n  pop\n    /* \"#utility.yul\":518:560   */\n  tag_16\n    /* \"#utility.yul\":484:509   */\n  dup2\n    /* \"#utility.yul\":518:560   */\n  tag_9\n  jump\t// in\ntag_16:\n    /* \"#utility.yul\":579:586   */\n  dup1\n    /* \"#utility.yul\":569:586   */\n  swap2\n  pop\n  pop\n    /* \"#utility.yul\":159:592   */\n  swap3\n  pop\n  swap3\n  swap1\n  pop\n  jump\t// out\ntag_10:\n    /* \"NFTstaking.sol\":311:6790  contract ERC721staking is ReentrancyGuard{... */\n  mload(0x80)\n  mload(0xa0)\n  codecopy(0x00, dataOffset(sub_0), dataSize(sub_0))\n  0x00\n  assignImmutable(\"0x8e8fab5f003314da8d1873ea7720e8d9f47650136d916064d1edb8a11d682624\")\n  0x00\n  assignImmutable(\"0x5c4c6aa067b6f8e6cb38e6ab843832a94d1712d661a04d73c517d6a1931a9e5d\")\n  return(0x00, dataSize(sub_0))\nstop\n\nsub_0: assembly {\n        /* \"NFTstaking.sol\":311:6790  contract ERC721staking is ReentrancyGuard{... */\n      mstore(0x40, 0x80)\n      callvalue\n      dup1\n      iszero\n      tag_1\n      jumpi\n      0x00\n      dup1\n      revert\n    tag_1:\n      pop\n      jumpi(tag_2, lt(calldatasize, 0x04))\n      shr(0xe0, calldataload(0x00))\n      dup1\n      0x9168ae72\n      gt\n      tag_12\n      jumpi\n      dup1\n      0xa694fc3a\n      gt\n      tag_13\n      jumpi\n      dup1\n      0xa694fc3a\n      eq\n      tag_9\n      jumpi\n      dup1\n      0xc6a8b32e\n      eq\n      tag_10\n      jumpi\n      dup1\n      0xd1af0c7d\n      eq\n      tag_11\n      jumpi\n      0x00\n      dup1\n      revert\n    tag_13:\n      dup1\n      0x9168ae72\n      eq\n      tag_7\n      jumpi\n      dup1\n      0x94067045\n      eq\n      tag_8\n      jumpi\n      0x00\n      dup1\n      revert\n    tag_12:\n      dup1\n      0x2e1a7d4d\n      eq\n      tag_3\n      jumpi\n      dup1\n      0x372500ab\n      eq\n      tag_4\n      jumpi\n      dup1\n      0x63c28db1\n      eq\n      tag_5\n      jumpi\n      dup1\n      0x6588103b\n      eq\n      tag_6\n      jumpi\n    tag_2:\n      0x00\n      dup1\n      revert\n        /* \"NFTstaking.sol\":2566:4130  function withdraw(uint256 _tokenId) external nonReentrant{... */\n    tag_3:\n      tag_14\n      tag_15\n      calldatasize\n      0x04\n      tag_16\n      jump\t// in\n    tag_15:\n      tag_17\n      jump\t// in\n    tag_14:\n      stop\n        /* \"NFTstaking.sol\":4134:4492  function claimRewards() external {... */\n    tag_4:\n      tag_14\n      tag_19\n      jump\t// in\n        /* \"NFTstaking.sol\":5910:6783  function getStakedTokens(address _user) public view returns (StakedToken[] memory) {... */\n    tag_5:\n      tag_20\n      tag_21\n      calldatasize\n      0x04\n      tag_22\n      jump\t// in\n    tag_21:\n      tag_23\n      jump\t// in\n    tag_20:\n      mload(0x40)\n      tag_24\n      swap2\n      swap1\n      tag_25\n      jump\t// in\n    tag_24:\n      mload(0x40)\n      dup1\n      swap2\n      sub\n      swap1\n      return\n        /* \"NFTstaking.sol\":472:510  IERC721 public immutable nftCollection */\n    tag_6:\n      tag_26\n      immutable(\"0x8e8fab5f003314da8d1873ea7720e8d9f47650136d916064d1edb8a11d682624\")\n      dup2\n      jump\n    tag_26:\n      mload(0x40)\n      sub(shl(0xa0, 0x01), 0x01)\n        /* \"#utility.yul\":1636:1691   */\n      swap1\n      swap2\n      and\n        /* \"#utility.yul\":1618:1692   */\n      dup2\n      mstore\n        /* \"#utility.yul\":1606:1608   */\n      0x20\n        /* \"#utility.yul\":1591:1609   */\n      add\n        /* \"NFTstaking.sol\":472:510  IERC721 public immutable nftCollection */\n      tag_24\n        /* \"#utility.yul\":1456:1698   */\n      jump\n        /* \"NFTstaking.sol\":1356:1397  mapping(address => Staker) public stakers */\n    tag_7:\n      tag_30\n      tag_31\n      calldatasize\n      0x04\n      tag_22\n      jump\t// in\n    tag_31:\n      0x02\n      0x20\n      dup2\n      swap1\n      mstore\n      0x00\n      swap2\n      dup3\n      mstore\n      0x40\n      swap1\n      swap2\n      keccak256\n      dup1\n      sload\n      swap2\n      dup2\n      add\n      sload\n      0x03\n      swap1\n      swap2\n      add\n      sload\n      dup4\n      jump\n    tag_30:\n      0x40\n      dup1\n      mload\n        /* \"#utility.yul\":1905:1930   */\n      swap4\n      dup5\n      mstore\n        /* \"#utility.yul\":1961:1963   */\n      0x20\n        /* \"#utility.yul\":1946:1964   */\n      dup5\n      add\n        /* \"#utility.yul\":1939:1973   */\n      swap3\n      swap1\n      swap3\n      mstore\n        /* \"#utility.yul\":1989:2007   */\n      swap1\n      dup3\n      add\n        /* \"#utility.yul\":1982:2016   */\n      mstore\n        /* \"#utility.yul\":1893:1895   */\n      0x60\n        /* \"#utility.yul\":1878:1896   */\n      add\n        /* \"NFTstaking.sol\":1356:1397  mapping(address => Staker) public stakers */\n      tag_24\n        /* \"#utility.yul\":1703:2022   */\n      jump\n        /* \"NFTstaking.sol\":1437:1484  mapping (uint256=>address) public stakerAddress */\n    tag_8:\n      tag_26\n      tag_36\n      calldatasize\n      0x04\n      tag_16\n      jump\t// in\n    tag_36:\n      mstore(0x20, 0x03)\n      0x00\n      swap1\n      dup2\n      mstore\n      0x40\n      swap1\n      keccak256\n      sload\n      sub(shl(0xa0, 0x01), 0x01)\n      and\n      dup2\n      jump\n        /* \"NFTstaking.sol\":1489:2562  function stake  (uint256 _tokenId) external nonReentrant {... */\n    tag_9:\n      tag_14\n      tag_41\n      calldatasize\n      0x04\n      tag_16\n      jump\t// in\n    tag_41:\n      tag_42\n      jump\t// in\n        /* \"NFTstaking.sol\":4780:4986  function avialabeRewards(address _staker) public view returns (uint256) {... */\n    tag_10:\n      tag_43\n      tag_44\n      calldatasize\n      0x04\n      tag_22\n      jump\t// in\n    tag_44:\n      tag_45\n      jump\t// in\n    tag_43:\n      mload(0x40)\n        /* \"#utility.yul\":2404:2429   */\n      swap1\n      dup2\n      mstore\n        /* \"#utility.yul\":2392:2394   */\n      0x20\n        /* \"#utility.yul\":2377:2395   */\n      add\n        /* \"NFTstaking.sol\":4780:4986  function avialabeRewards(address _staker) public view returns (uint256) {... */\n      tag_24\n        /* \"#utility.yul\":2258:2435   */\n      jump\n        /* \"NFTstaking.sol\":431:467  IERC20 public immutable rewardsToken */\n    tag_11:\n      tag_26\n      immutable(\"0x5c4c6aa067b6f8e6cb38e6ab843832a94d1712d661a04d73c517d6a1931a9e5d\")\n      dup2\n      jump\n        /* \"NFTstaking.sol\":2566:4130  function withdraw(uint256 _tokenId) external nonReentrant{... */\n    tag_17:\n        /* \"@openzeppelin/contracts/security/ReentrancyGuard.sol\":1744:1745   */\n      0x02\n        /* \"@openzeppelin/contracts/security/ReentrancyGuard.sol\":2325:2332   */\n      sload(0x00)\n        /* \"@openzeppelin/contracts/security/ReentrancyGuard.sol\":2325:2344   */\n      sub\n        /* \"@openzeppelin/contracts/security/ReentrancyGuard.sol\":2317:2380   */\n      tag_53\n      jumpi\n      mload(0x40)\n      shl(0xe5, 0x461bcd)\n      dup2\n      mstore\n        /* \"#utility.yul\":2887:2889   */\n      0x20\n        /* \"@openzeppelin/contracts/security/ReentrancyGuard.sol\":2317:2380   */\n      0x04\n      dup3\n      add\n        /* \"#utility.yul\":2869:2890   */\n      mstore\n        /* \"#utility.yul\":2926:2928   */\n      0x1f\n        /* \"#utility.yul\":2906:2924   */\n      0x24\n      dup3\n      add\n        /* \"#utility.yul\":2899:2929   */\n      mstore\n        /* \"#utility.yul\":2965:2998   */\n      0x5265656e7472616e637947756172643a207265656e7472616e742063616c6c00\n        /* \"#utility.yul\":2945:2963   */\n      0x44\n      dup3\n      add\n        /* \"#utility.yul\":2938:2999   */\n      mstore\n        /* \"#utility.yul\":3016:3034   */\n      0x64\n      add\n        /* \"@openzeppelin/contracts/security/ReentrancyGuard.sol\":2317:2380   */\n    tag_54:\n      mload(0x40)\n      dup1\n      swap2\n      sub\n      swap1\n      revert\n    tag_53:\n        /* \"@openzeppelin/contracts/security/ReentrancyGuard.sol\":1744:1745   */\n      0x02\n        /* \"@openzeppelin/contracts/security/ReentrancyGuard.sol\":2455:2462   */\n      0x00\n        /* \"@openzeppelin/contracts/security/ReentrancyGuard.sol\":2455:2473   */\n      dup2\n      dup2\n      sstore\n        /* \"NFTstaking.sol\":2731:2741  msg.sender */\n      caller\n        /* \"NFTstaking.sol\":2723:2742  stakers[msg.sender] */\n      dup2\n      mstore\n      0x20\n      swap2\n      swap1\n      swap2\n      mstore\n      0x40\n      swap1\n      keccak256\n        /* \"NFTstaking.sol\":2723:2755  stakers[msg.sender].amountStaked */\n      sload\n        /* \"NFTstaking.sol\":2705:2805  require(... */\n      tag_57\n      jumpi\n      mload(0x40)\n      shl(0xe5, 0x461bcd)\n      dup2\n      mstore\n        /* \"#utility.yul\":3247:3249   */\n      0x20\n        /* \"NFTstaking.sol\":2705:2805  require(... */\n      0x04\n      dup3\n      add\n        /* \"#utility.yul\":3229:3250   */\n      mstore\n        /* \"#utility.yul\":3286:3288   */\n      0x19\n        /* \"#utility.yul\":3266:3284   */\n      0x24\n      dup3\n      add\n        /* \"#utility.yul\":3259:3289   */\n      mstore\n        /* \"#utility.yul\":3325:3352   */\n      0x596f752068617665206e6f20546f6b656e73207374616b656400000000000000\n        /* \"#utility.yul\":3305:3323   */\n      0x44\n      dup3\n      add\n        /* \"#utility.yul\":3298:3353   */\n      mstore\n        /* \"#utility.yul\":3370:3388   */\n      0x64\n      add\n        /* \"NFTstaking.sol\":2705:2805  require(... */\n      tag_54\n        /* \"#utility.yul\":3045:3394   */\n      jump\n        /* \"NFTstaking.sol\":2705:2805  require(... */\n    tag_57:\n        /* \"NFTstaking.sol\":2883:2906  stakerAddress[_tokenId] */\n      0x00\n      dup2\n      dup2\n      mstore\n        /* \"NFTstaking.sol\":2883:2896  stakerAddress */\n      0x03\n        /* \"NFTstaking.sol\":2883:2906  stakerAddress[_tokenId] */\n      0x20\n      mstore\n      0x40\n      swap1\n      keccak256\n      sload\n      sub(shl(0xa0, 0x01), 0x01)\n      and\n        /* \"NFTstaking.sol\":2910:2920  msg.sender */\n      caller\n        /* \"NFTstaking.sol\":2883:2920  stakerAddress[_tokenId] == msg.sender */\n      eq\n        /* \"NFTstaking.sol\":2875:2948  require(stakerAddress[_tokenId] == msg.sender, \"You don't own this NFT!\") */\n      tag_60\n      jumpi\n      mload(0x40)\n      shl(0xe5, 0x461bcd)\n      dup2\n      mstore\n        /* \"#utility.yul\":3601:3603   */\n      0x20\n        /* \"NFTstaking.sol\":2875:2948  require(stakerAddress[_tokenId] == msg.sender, \"You don't own this NFT!\") */\n      0x04\n      dup3\n      add\n        /* \"#utility.yul\":3583:3604   */\n      mstore\n        /* \"#utility.yul\":3640:3642   */\n      0x17\n        /* \"#utility.yul\":3620:3638   */\n      0x24\n      dup3\n      add\n        /* \"#utility.yul\":3613:3643   */\n      mstore\n        /* \"#utility.yul\":3679:3704   */\n      0x596f7520646f6e2774206f776e2074686973204e465421000000000000000000\n        /* \"#utility.yul\":3659:3677   */\n      0x44\n      dup3\n      add\n        /* \"#utility.yul\":3652:3705   */\n      mstore\n        /* \"#utility.yul\":3722:3740   */\n      0x64\n      add\n        /* \"NFTstaking.sol\":2875:2948  require(stakerAddress[_tokenId] == msg.sender, \"You don't own this NFT!\") */\n      tag_54\n        /* \"#utility.yul\":3399:3746   */\n      jump\n        /* \"NFTstaking.sol\":2875:2948  require(stakerAddress[_tokenId] == msg.sender, \"You don't own this NFT!\") */\n    tag_60:\n        /* \"NFTstaking.sol\":3048:3063  uint256 rewards */\n      0x00\n        /* \"NFTstaking.sol\":3066:3094  calculateRewards(msg.sender) */\n      tag_63\n        /* \"NFTstaking.sol\":3083:3093  msg.sender */\n      caller\n        /* \"NFTstaking.sol\":3066:3082  calculateRewards */\n      tag_64\n        /* \"NFTstaking.sol\":3066:3094  calculateRewards(msg.sender) */\n      jump\t// in\n    tag_63:\n        /* \"NFTstaking.sol\":3109:3119  msg.sender */\n      caller\n        /* \"NFTstaking.sol\":3101:3120  stakers[msg.sender] */\n      0x00\n      swap1\n      dup2\n      mstore\n        /* \"NFTstaking.sol\":3101:3108  stakers */\n      0x02\n        /* \"NFTstaking.sol\":3101:3120  stakers[msg.sender] */\n      0x20\n      mstore\n      0x40\n      dup2\n      keccak256\n        /* \"NFTstaking.sol\":3101:3137  stakers[msg.sender].unclaimedRewards */\n      0x03\n      add\n        /* \"NFTstaking.sol\":3101:3148  stakers[msg.sender].unclaimedRewards += rewards */\n      dup1\n      sload\n        /* \"NFTstaking.sol\":3048:3094  uint256 rewards = calculateRewards(msg.sender) */\n      swap3\n      swap4\n      pop\n      dup4\n      swap3\n        /* \"NFTstaking.sol\":3101:3137  stakers[msg.sender].unclaimedRewards */\n      swap1\n      swap2\n        /* \"NFTstaking.sol\":3101:3120  stakers[msg.sender] */\n      swap1\n        /* \"NFTstaking.sol\":3101:3148  stakers[msg.sender].unclaimedRewards += rewards */\n      tag_65\n      swap1\n        /* \"NFTstaking.sol\":3048:3094  uint256 rewards = calculateRewards(msg.sender) */\n      dup5\n      swap1\n        /* \"NFTstaking.sol\":3101:3148  stakers[msg.sender].unclaimedRewards += rewards */\n      tag_66\n      jump\t// in\n    tag_65:\n      swap1\n      swap2\n      sstore\n      pop\n        /* \"NFTstaking.sol\":3221:3234  uint256 index */\n      0x00\n      swap1\n      pop\n      dup1\n        /* \"NFTstaking.sol\":3243:3439  for (uint256 i=0;i<stakers[msg.sender].stakedTokens.length; i++){... */\n    tag_67:\n        /* \"NFTstaking.sol\":3270:3280  msg.sender */\n      caller\n        /* \"NFTstaking.sol\":3262:3281  stakers[msg.sender] */\n      0x00\n      swap1\n      dup2\n      mstore\n        /* \"NFTstaking.sol\":3262:3269  stakers */\n      0x02\n        /* \"NFTstaking.sol\":3262:3281  stakers[msg.sender] */\n      0x20\n      mstore\n      0x40\n      swap1\n      keccak256\n        /* \"NFTstaking.sol\":3262:3294  stakers[msg.sender].stakedTokens */\n      0x01\n      add\n        /* \"NFTstaking.sol\":3262:3301  stakers[msg.sender].stakedTokens.length */\n      sload\n        /* \"NFTstaking.sol\":3260:3301  i<stakers[msg.sender].stakedTokens.length */\n      dup2\n      lt\n        /* \"NFTstaking.sol\":3243:3439  for (uint256 i=0;i<stakers[msg.sender].stakedTokens.length; i++){... */\n      iszero\n      tag_68\n      jumpi\n        /* \"NFTstaking.sol\":3330:3340  msg.sender */\n      caller\n        /* \"NFTstaking.sol\":3322:3341  stakers[msg.sender] */\n      0x00\n      swap1\n      dup2\n      mstore\n        /* \"NFTstaking.sol\":3322:3329  stakers */\n      0x02\n        /* \"NFTstaking.sol\":3322:3341  stakers[msg.sender] */\n      0x20\n      mstore\n      0x40\n      swap1\n      keccak256\n        /* \"NFTstaking.sol\":3322:3354  stakers[msg.sender].stakedTokens */\n      0x01\n      add\n        /* \"NFTstaking.sol\":3322:3357  stakers[msg.sender].stakedTokens[i] */\n      dup1\n      sload\n        /* \"NFTstaking.sol\":3369:3377  _tokenId */\n      dup6\n      swap2\n        /* \"NFTstaking.sol\":3322:3354  stakers[msg.sender].stakedTokens */\n      swap1\n        /* \"NFTstaking.sol\":3355:3356  i */\n      dup4\n      swap1\n        /* \"NFTstaking.sol\":3322:3357  stakers[msg.sender].stakedTokens[i] */\n      dup2\n      lt\n      tag_71\n      jumpi\n      tag_71\n      tag_72\n      jump\t// in\n    tag_71:\n      swap1\n      0x00\n      mstore\n      keccak256(0x00, 0x20)\n      swap1\n      0x02\n      mul\n      add\n        /* \"NFTstaking.sol\":3322:3365  stakers[msg.sender].stakedTokens[i].tokenId */\n      0x01\n      add\n      sload\n        /* \"NFTstaking.sol\":3322:3377  stakers[msg.sender].stakedTokens[i].tokenId == _tokenId */\n      sub\n        /* \"NFTstaking.sol\":3318:3432  if (stakers[msg.sender].stakedTokens[i].tokenId == _tokenId){... */\n      tag_74\n      jumpi\n        /* \"NFTstaking.sol\":3399:3400  i */\n      dup1\n        /* \"NFTstaking.sol\":3393:3400  index=i */\n      swap2\n      pop\n        /* \"NFTstaking.sol\":3415:3420  break */\n      jump(tag_68)\n        /* \"NFTstaking.sol\":3318:3432  if (stakers[msg.sender].stakedTokens[i].tokenId == _tokenId){... */\n    tag_74:\n        /* \"NFTstaking.sol\":3303:3306  i++ */\n      dup1\n      tag_75\n      dup2\n      tag_76\n      jump\t// in\n    tag_75:\n      swap2\n      pop\n      pop\n        /* \"NFTstaking.sol\":3243:3439  for (uint256 i=0;i<stakers[msg.sender].stakedTokens.length; i++){... */\n      jump(tag_67)\n    tag_68:\n      pop\n        /* \"NFTstaking.sol\":3589:3599  msg.sender */\n      caller\n        /* \"NFTstaking.sol\":3638:3639  0 */\n      0x00\n        /* \"NFTstaking.sol\":3581:3600  stakers[msg.sender] */\n      swap1\n      dup2\n      mstore\n        /* \"NFTstaking.sol\":3581:3588  stakers */\n      0x02\n        /* \"NFTstaking.sol\":3581:3600  stakers[msg.sender] */\n      0x20\n      mstore\n      0x40\n      dup2\n      keccak256\n        /* \"NFTstaking.sol\":3581:3613  stakers[msg.sender].stakedTokens */\n      0x01\n      add\n        /* \"NFTstaking.sol\":3581:3620  stakers[msg.sender].stakedTokens[index] */\n      dup1\n      sload\n        /* \"NFTstaking.sol\":3614:3619  index */\n      dup4\n      swap1\n        /* \"NFTstaking.sol\":3581:3620  stakers[msg.sender].stakedTokens[index] */\n      dup2\n      lt\n      tag_78\n      jumpi\n      tag_78\n      tag_72\n      jump\t// in\n    tag_78:\n      0x00\n      swap2\n      dup3\n      mstore\n      0x20\n      dup1\n      dup4\n      keccak256\n      0x02\n      swap3\n      dup4\n      mul\n      add\n        /* \"NFTstaking.sol\":3581:3640  stakers[msg.sender].stakedTokens[index].Staker = address(0) */\n      dup1\n      sload\n      not(sub(shl(0xa0, 0x01), 0x01))\n      and\n      sub(shl(0xa0, 0x01), 0x01)\n      swap6\n      swap1\n      swap6\n      and\n      swap5\n      swap1\n      swap5\n      or\n      swap1\n      swap4\n      sstore\n        /* \"NFTstaking.sol\":3711:3721  msg.sender */\n      caller\n        /* \"NFTstaking.sol\":3703:3722  stakers[msg.sender] */\n      dup3\n      mstore\n      swap1\n      swap2\n      mstore\n      0x40\n      dup2\n      keccak256\n        /* \"NFTstaking.sol\":3703:3737  stakers[msg.sender].amountStaked-- */\n      dup1\n      sload\n      swap2\n      tag_80\n      dup4\n      tag_81\n      jump\t// in\n    tag_80:\n      swap1\n      swap2\n      sstore\n      pop\n      pop\n        /* \"NFTstaking.sol\":3889:3890  0 */\n      0x00\n        /* \"NFTstaking.sol\":3855:3878  stakerAddress[_tokenId] */\n      dup4\n      dup2\n      mstore\n        /* \"NFTstaking.sol\":3855:3868  stakerAddress */\n      0x03\n        /* \"NFTstaking.sol\":3855:3878  stakerAddress[_tokenId] */\n      0x20\n      mstore\n      0x40\n      swap1\n      dup2\n      swap1\n      keccak256\n        /* \"NFTstaking.sol\":3855:3891  stakerAddress[_tokenId] = address(0) */\n      dup1\n      sload\n      not(sub(shl(0xa0, 0x01), 0x01))\n      and\n      swap1\n      sstore\n        /* \"NFTstaking.sol\":3945:4009  nftCollection.transferFrom(address(this) , msg.sender, _tokenId) */\n      mload\n      shl(0xe0, 0x23b872dd)\n      dup2\n      mstore\n        /* \"NFTstaking.sol\":3980:3984  this */\n      address\n        /* \"NFTstaking.sol\":3945:4009  nftCollection.transferFrom(address(this) , msg.sender, _tokenId) */\n      0x04\n      dup3\n      add\n        /* \"#utility.yul\":4692:4726   */\n      mstore\n        /* \"NFTstaking.sol\":3988:3998  msg.sender */\n      caller\n        /* \"#utility.yul\":4742:4760   */\n      0x24\n      dup3\n      add\n        /* \"#utility.yul\":4735:4778   */\n      mstore\n        /* \"#utility.yul\":4794:4812   */\n      0x44\n      dup2\n      add\n        /* \"#utility.yul\":4787:4821   */\n      dup5\n      swap1\n      mstore\n      sub(shl(0xa0, 0x01), 0x01)\n        /* \"NFTstaking.sol\":3945:3958  nftCollection */\n      immutable(\"0x8e8fab5f003314da8d1873ea7720e8d9f47650136d916064d1edb8a11d682624\")\n        /* \"NFTstaking.sol\":3945:3971  nftCollection.transferFrom */\n      and\n      swap1\n      0x23b872dd\n      swap1\n        /* \"#utility.yul\":4604:4622   */\n      0x64\n      add\n        /* \"NFTstaking.sol\":3945:4009  nftCollection.transferFrom(address(this) , msg.sender, _tokenId) */\n      0x00\n      mload(0x40)\n      dup1\n      dup4\n      sub\n      dup2\n      0x00\n      dup8\n      dup1\n      extcodesize\n      iszero\n      dup1\n      iszero\n      tag_84\n      jumpi\n      0x00\n      dup1\n      revert\n    tag_84:\n      pop\n      gas\n      call\n      iszero\n      dup1\n      iszero\n      tag_86\n      jumpi\n      returndatasize\n      0x00\n      dup1\n      returndatacopy\n      revert(0x00, returndatasize)\n    tag_86:\n      pop\n      pop\n        /* \"NFTstaking.sol\":4080:4090  msg.sender */\n      caller\n        /* \"NFTstaking.sol\":4072:4091  stakers[msg.sender] */\n      0x00\n      swap1\n      dup2\n      mstore\n        /* \"NFTstaking.sol\":4072:4079  stakers */\n      0x02\n        /* \"NFTstaking.sol\":4072:4091  stakers[msg.sender] */\n      0x20\n      dup2\n      swap1\n      mstore\n      0x40\n      dup3\n      keccak256\n        /* \"NFTstaking.sol\":4111:4126  block.timestamp */\n      timestamp\n        /* \"NFTstaking.sol\":4072:4108  stakers[msg.sender].timeOfLastUpdate */\n      swap2\n      add\n        /* \"NFTstaking.sol\":4072:4126  stakers[msg.sender].timeOfLastUpdate = block.timestamp */\n      sstore\n        /* \"@openzeppelin/contracts/security/ReentrancyGuard.sol\":1701:1702   */\n      0x01\n        /* \"@openzeppelin/contracts/security/ReentrancyGuard.sol\":2628:2650   */\n      swap1\n      sstore\n      pop\n      pop\n      pop\n      pop\n      pop\n        /* \"NFTstaking.sol\":2566:4130  function withdraw(uint256 _tokenId) external nonReentrant{... */\n      jump\t// out\n        /* \"NFTstaking.sol\":4134:4492  function claimRewards() external {... */\n    tag_19:\n        /* \"NFTstaking.sol\":4237:4247  msg.sender */\n      caller\n        /* \"NFTstaking.sol\":4174:4189  uint256 rewards */\n      0x00\n        /* \"NFTstaking.sol\":4229:4248  stakers[msg.sender] */\n      dup2\n      dup2\n      mstore\n        /* \"NFTstaking.sol\":4229:4236  stakers */\n      0x02\n        /* \"NFTstaking.sol\":4229:4248  stakers[msg.sender] */\n      0x20\n      mstore\n      0x40\n      dup2\n      keccak256\n        /* \"NFTstaking.sol\":4229:4265  stakers[msg.sender].unclaimedRewards */\n      0x03\n      add\n      sload\n        /* \"NFTstaking.sol\":4174:4189  uint256 rewards */\n      swap1\n      swap2\n        /* \"NFTstaking.sol\":4192:4220  calculateRewards(msg.sender) */\n      tag_88\n      swap1\n        /* \"NFTstaking.sol\":4192:4208  calculateRewards */\n      tag_64\n        /* \"NFTstaking.sol\":4192:4220  calculateRewards(msg.sender) */\n      jump\t// in\n    tag_88:\n        /* \"NFTstaking.sol\":4192:4265  calculateRewards(msg.sender) + ... */\n      tag_89\n      swap2\n      swap1\n      tag_66\n      jump\t// in\n    tag_89:\n        /* \"NFTstaking.sol\":4174:4265  uint256 rewards = calculateRewards(msg.sender) + ... */\n      swap1\n      pop\n        /* \"NFTstaking.sol\":4290:4291  0 */\n      0x00\n        /* \"NFTstaking.sol\":4282:4289  rewards */\n      dup2\n        /* \"NFTstaking.sol\":4282:4291  rewards>0 */\n      gt\n        /* \"NFTstaking.sol\":4274:4323  require(rewards>0,\"You have no rewards to claim\") */\n      tag_90\n      jumpi\n      mload(0x40)\n      shl(0xe5, 0x461bcd)\n      dup2\n      mstore\n        /* \"#utility.yul\":5034:5036   */\n      0x20\n        /* \"NFTstaking.sol\":4274:4323  require(rewards>0,\"You have no rewards to claim\") */\n      0x04\n      dup3\n      add\n        /* \"#utility.yul\":5016:5037   */\n      mstore\n        /* \"#utility.yul\":5073:5075   */\n      0x1c\n        /* \"#utility.yul\":5053:5071   */\n      0x24\n      dup3\n      add\n        /* \"#utility.yul\":5046:5076   */\n      mstore\n        /* \"#utility.yul\":5112:5142   */\n      0x596f752068617665206e6f207265776172647320746f20636c61696d00000000\n        /* \"#utility.yul\":5092:5110   */\n      0x44\n      dup3\n      add\n        /* \"#utility.yul\":5085:5143   */\n      mstore\n        /* \"#utility.yul\":5160:5178   */\n      0x64\n      add\n        /* \"NFTstaking.sol\":4274:4323  require(rewards>0,\"You have no rewards to claim\") */\n      tag_54\n        /* \"#utility.yul\":4832:5184   */\n      jump\n        /* \"NFTstaking.sol\":4274:4323  require(rewards>0,\"You have no rewards to claim\") */\n    tag_90:\n        /* \"NFTstaking.sol\":4340:4350  msg.sender */\n      caller\n        /* \"NFTstaking.sol\":4332:4351  stakers[msg.sender] */\n      0x00\n      dup2\n      dup2\n      mstore\n        /* \"NFTstaking.sol\":4332:4339  stakers */\n      0x02\n        /* \"NFTstaking.sol\":4332:4351  stakers[msg.sender] */\n      0x20\n      dup2\n      swap1\n      mstore\n      0x40\n      dup3\n      keccak256\n        /* \"NFTstaking.sol\":4371:4386  block.timestamp */\n      timestamp\n        /* \"NFTstaking.sol\":4332:4368  stakers[msg.sender].timeOfLastUpdate */\n      swap2\n      dup2\n      add\n        /* \"NFTstaking.sol\":4332:4386  stakers[msg.sender].timeOfLastUpdate = block.timestamp */\n      swap2\n      swap1\n      swap2\n      sstore\n        /* \"NFTstaking.sol\":4393:4429  stakers[msg.sender].unclaimedRewards */\n      0x03\n      add\n        /* \"NFTstaking.sol\":4393:4433  stakers[msg.sender].unclaimedRewards = 0 */\n      sstore\n        /* \"NFTstaking.sol\":4442:4488  rewardsToken.safeTransfer(msg.sender, rewards) */\n      tag_93\n      swap1\n        /* \"NFTstaking.sol\":4442:4454  rewardsToken */\n      immutable(\"0x5c4c6aa067b6f8e6cb38e6ab843832a94d1712d661a04d73c517d6a1931a9e5d\")\n      sub(shl(0xa0, 0x01), 0x01)\n        /* \"NFTstaking.sol\":4442:4467  rewardsToken.safeTransfer */\n      and\n      swap1\n        /* \"NFTstaking.sol\":4480:4487  rewards */\n      dup4\n        /* \"NFTstaking.sol\":4442:4467  rewardsToken.safeTransfer */\n      tag_94\n        /* \"NFTstaking.sol\":4442:4488  rewardsToken.safeTransfer(msg.sender, rewards) */\n      jump\t// in\n    tag_93:\n        /* \"NFTstaking.sol\":4167:4492  {... */\n      pop\n        /* \"NFTstaking.sol\":4134:4492  function claimRewards() external {... */\n      jump\t// out\n        /* \"NFTstaking.sol\":5910:6783  function getStakedTokens(address _user) public view returns (StakedToken[] memory) {... */\n    tag_23:\n      sub(shl(0xa0, 0x01), 0x01)\n        /* \"NFTstaking.sol\":6047:6061  stakers[_user] */\n      dup2\n      and\n        /* \"NFTstaking.sol\":6077:6078  0 */\n      0x00\n        /* \"NFTstaking.sol\":6047:6061  stakers[_user] */\n      swap1\n      dup2\n      mstore\n        /* \"NFTstaking.sol\":6047:6054  stakers */\n      0x02\n        /* \"NFTstaking.sol\":6047:6061  stakers[_user] */\n      0x20\n      mstore\n      0x40\n      swap1\n      keccak256\n        /* \"NFTstaking.sol\":6047:6074  stakers[_user].amountStaked */\n      sload\n        /* \"NFTstaking.sol\":5971:5991  StakedToken[] memory */\n      0x60\n      swap1\n        /* \"NFTstaking.sol\":6047:6078  stakers[_user].amountStaked > 0 */\n      iszero\n        /* \"NFTstaking.sol\":6043:6776  if (stakers[_user].amountStaked > 0) {... */\n      tag_96\n      jumpi\n      sub(shl(0xa0, 0x01), 0x01)\n        /* \"NFTstaking.sol\":6243:6257  stakers[_user] */\n      dup3\n      and\n        /* \"NFTstaking.sol\":6188:6222  StakedToken[] memory _stakedTokens */\n      0x00\n        /* \"NFTstaking.sol\":6243:6257  stakers[_user] */\n      swap1\n      dup2\n      mstore\n        /* \"NFTstaking.sol\":6243:6250  stakers */\n      0x02\n        /* \"NFTstaking.sol\":6243:6257  stakers[_user] */\n      0x20\n      mstore\n      0x40\n      dup2\n      keccak256\n        /* \"NFTstaking.sol\":6243:6270  stakers[_user].amountStaked */\n      sload\n        /* \"NFTstaking.sol\":6225:6271  new StakedToken[](stakers[_user].amountStaked) */\n      0xffffffffffffffff\n      dup2\n      gt\n      iszero\n      tag_98\n      jumpi\n      tag_98\n      tag_99\n      jump\t// in\n    tag_98:\n      mload(0x40)\n      swap1\n      dup1\n      dup3\n      mstore\n      dup1\n      0x20\n      mul\n      0x20\n      add\n      dup3\n      add\n      0x40\n      mstore\n      dup1\n      iszero\n      tag_100\n      jumpi\n      dup2\n      0x20\n      add\n    tag_101:\n      0x40\n      dup1\n      mload\n      dup1\n      dup3\n      add\n      swap1\n      swap2\n      mstore\n      0x00\n      dup1\n      dup3\n      mstore\n      0x20\n      dup3\n      add\n      mstore\n      dup2\n      mstore\n      0x20\n      add\n      swap1\n      0x01\n      swap1\n      sub\n      swap1\n      dup2\n      tag_101\n      jumpi\n      swap1\n      pop\n    tag_100:\n      pop\n        /* \"NFTstaking.sol\":6188:6271  StakedToken[] memory _stakedTokens = new StakedToken[](stakers[_user].amountStaked) */\n      swap1\n      pop\n        /* \"NFTstaking.sol\":6286:6300  uint256 _index */\n      0x00\n        /* \"NFTstaking.sol\":6326:6335  uint256 j */\n      dup1\n        /* \"NFTstaking.sol\":6321:6607  for (uint256 j = 0; j < stakers[_user].stakedTokens.length; j++) {... */\n    tag_104:\n      sub(shl(0xa0, 0x01), 0x01)\n        /* \"NFTstaking.sol\":6345:6359  stakers[_user] */\n      dup6\n      and\n      0x00\n      swap1\n      dup2\n      mstore\n        /* \"NFTstaking.sol\":6345:6352  stakers */\n      0x02\n        /* \"NFTstaking.sol\":6345:6359  stakers[_user] */\n      0x20\n      mstore\n      0x40\n      swap1\n      keccak256\n        /* \"NFTstaking.sol\":6345:6372  stakers[_user].stakedTokens */\n      0x01\n      add\n        /* \"NFTstaking.sol\":6345:6379  stakers[_user].stakedTokens.length */\n      sload\n        /* \"NFTstaking.sol\":6341:6379  j < stakers[_user].stakedTokens.length */\n      dup2\n      lt\n        /* \"NFTstaking.sol\":6321:6607  for (uint256 j = 0; j < stakers[_user].stakedTokens.length; j++) {... */\n      iszero\n      tag_105\n      jumpi\n      sub(shl(0xa0, 0x01), 0x01)\n        /* \"NFTstaking.sol\":6409:6423  stakers[_user] */\n      dup6\n      and\n        /* \"NFTstaking.sol\":6459:6460  0 */\n      0x00\n        /* \"NFTstaking.sol\":6409:6423  stakers[_user] */\n      swap1\n      dup2\n      mstore\n        /* \"NFTstaking.sol\":6409:6416  stakers */\n      0x02\n        /* \"NFTstaking.sol\":6409:6423  stakers[_user] */\n      0x20\n      mstore\n      0x40\n      dup2\n      keccak256\n        /* \"NFTstaking.sol\":6409:6436  stakers[_user].stakedTokens */\n      0x01\n      add\n        /* \"NFTstaking.sol\":6409:6439  stakers[_user].stakedTokens[j] */\n      dup1\n      sload\n        /* \"NFTstaking.sol\":6437:6438  j */\n      dup4\n      swap1\n        /* \"NFTstaking.sol\":6409:6439  stakers[_user].stakedTokens[j] */\n      dup2\n      lt\n      tag_108\n      jumpi\n      tag_108\n      tag_72\n      jump\t// in\n    tag_108:\n      0x00\n      swap2\n      dup3\n      mstore\n      0x20\n      swap1\n      swap2\n      keccak256\n      0x02\n      swap1\n      swap2\n      mul\n      add\n        /* \"NFTstaking.sol\":6409:6446  stakers[_user].stakedTokens[j].Staker */\n      sload\n      sub(shl(0xa0, 0x01), 0x01)\n      and\n        /* \"NFTstaking.sol\":6409:6462  stakers[_user].stakedTokens[j].Staker != (address(0)) */\n      eq\n        /* \"NFTstaking.sol\":6405:6592  if (stakers[_user].stakedTokens[j].Staker != (address(0))) {... */\n      tag_110\n      jumpi\n      sub(shl(0xa0, 0x01), 0x01)\n        /* \"NFTstaking.sol\":6511:6525  stakers[_user] */\n      dup6\n      and\n      0x00\n      swap1\n      dup2\n      mstore\n        /* \"NFTstaking.sol\":6511:6518  stakers */\n      0x02\n        /* \"NFTstaking.sol\":6511:6525  stakers[_user] */\n      0x20\n      mstore\n      0x40\n      swap1\n      keccak256\n        /* \"NFTstaking.sol\":6511:6538  stakers[_user].stakedTokens */\n      0x01\n      add\n        /* \"NFTstaking.sol\":6511:6541  stakers[_user].stakedTokens[j] */\n      dup1\n      sload\n        /* \"NFTstaking.sol\":6539:6540  j */\n      dup3\n      swap1\n        /* \"NFTstaking.sol\":6511:6541  stakers[_user].stakedTokens[j] */\n      dup2\n      lt\n      tag_112\n      jumpi\n      tag_112\n      tag_72\n      jump\t// in\n    tag_112:\n      0x00\n      swap2\n      dup3\n      mstore\n      0x20\n      swap2\n      dup3\n      swap1\n      keccak256\n        /* \"NFTstaking.sol\":6487:6541  _stakedTokens[_index] = stakers[_user].stakedTokens[j] */\n      0x40\n      dup1\n      mload\n      dup1\n      dup3\n      add\n      swap1\n      swap2\n      mstore\n        /* \"NFTstaking.sol\":6511:6541  stakers[_user].stakedTokens[j] */\n      0x02\n      swap1\n      swap3\n      mul\n      add\n        /* \"NFTstaking.sol\":6487:6541  _stakedTokens[_index] = stakers[_user].stakedTokens[j] */\n      dup1\n      sload\n      sub(shl(0xa0, 0x01), 0x01)\n      and\n      dup3\n      mstore\n      0x01\n      add\n      sload\n      swap2\n      dup2\n      add\n      swap2\n      swap1\n      swap2\n      mstore\n        /* \"NFTstaking.sol\":6487:6508  _stakedTokens[_index] */\n      dup4\n      mload\n        /* \"NFTstaking.sol\":6487:6500  _stakedTokens */\n      dup5\n      swap1\n        /* \"NFTstaking.sol\":6501:6507  _index */\n      dup5\n      swap1\n        /* \"NFTstaking.sol\":6487:6508  _stakedTokens[_index] */\n      dup2\n      lt\n      tag_115\n      jumpi\n      tag_115\n      tag_72\n      jump\t// in\n    tag_115:\n      0x20\n      mul\n      0x20\n      add\n      add\n        /* \"NFTstaking.sol\":6487:6541  _stakedTokens[_index] = stakers[_user].stakedTokens[j] */\n      dup2\n      swap1\n      mstore\n      pop\n        /* \"NFTstaking.sol\":6564:6572  _index++ */\n      dup2\n      dup1\n      tag_116\n      swap1\n      tag_76\n      jump\t// in\n    tag_116:\n      swap3\n      pop\n      pop\n        /* \"NFTstaking.sol\":6405:6592  if (stakers[_user].stakedTokens[j].Staker != (address(0))) {... */\n    tag_110:\n        /* \"NFTstaking.sol\":6381:6384  j++ */\n      dup1\n      tag_117\n      dup2\n      tag_76\n      jump\t// in\n    tag_117:\n      swap2\n      pop\n      pop\n        /* \"NFTstaking.sol\":6321:6607  for (uint256 j = 0; j < stakers[_user].stakedTokens.length; j++) {... */\n      jump(tag_104)\n    tag_105:\n      pop\n        /* \"NFTstaking.sol\":6630:6643  _stakedTokens */\n      swap1\n      swap4\n        /* \"NFTstaking.sol\":5910:6783  function getStakedTokens(address _user) public view returns (StakedToken[] memory) {... */\n      swap3\n      pop\n      pop\n      pop\n      jump\t// out\n        /* \"NFTstaking.sol\":6043:6776  if (stakers[_user].amountStaked > 0) {... */\n    tag_96:\n        /* \"NFTstaking.sol\":6744:6764  new StakedToken[](0) */\n      0x40\n      dup1\n      mload\n        /* \"NFTstaking.sol\":6762:6763  0 */\n      0x00\n        /* \"NFTstaking.sol\":6744:6764  new StakedToken[](0) */\n      dup1\n      dup3\n      mstore\n      0x20\n      dup3\n      add\n      swap1\n      swap3\n      mstore\n      swap1\n      jump(tag_121)\n    tag_122:\n      0x40\n      dup1\n      mload\n      dup1\n      dup3\n      add\n      swap1\n      swap2\n      mstore\n      0x00\n      dup1\n      dup3\n      mstore\n      0x20\n      dup3\n      add\n      mstore\n      dup2\n      mstore\n      0x20\n      add\n      swap1\n      0x01\n      swap1\n      sub\n      swap1\n      dup2\n      tag_122\n      jumpi\n      swap1\n      pop\n    tag_121:\n      pop\n        /* \"NFTstaking.sol\":6737:6764  return new StakedToken[](0) */\n      swap3\n        /* \"NFTstaking.sol\":5910:6783  function getStakedTokens(address _user) public view returns (StakedToken[] memory) {... */\n      swap2\n      pop\n      pop\n      jump\t// out\n        /* \"NFTstaking.sol\":1489:2562  function stake  (uint256 _tokenId) external nonReentrant {... */\n    tag_42:\n        /* \"@openzeppelin/contracts/security/ReentrancyGuard.sol\":1744:1745   */\n      0x02\n        /* \"@openzeppelin/contracts/security/ReentrancyGuard.sol\":2325:2332   */\n      sload(0x00)\n        /* \"@openzeppelin/contracts/security/ReentrancyGuard.sol\":2325:2344   */\n      sub\n        /* \"@openzeppelin/contracts/security/ReentrancyGuard.sol\":2317:2380   */\n      tag_125\n      jumpi\n      mload(0x40)\n      shl(0xe5, 0x461bcd)\n      dup2\n      mstore\n        /* \"#utility.yul\":2887:2889   */\n      0x20\n        /* \"@openzeppelin/contracts/security/ReentrancyGuard.sol\":2317:2380   */\n      0x04\n      dup3\n      add\n        /* \"#utility.yul\":2869:2890   */\n      mstore\n        /* \"#utility.yul\":2926:2928   */\n      0x1f\n        /* \"#utility.yul\":2906:2924   */\n      0x24\n      dup3\n      add\n        /* \"#utility.yul\":2899:2929   */\n      mstore\n        /* \"#utility.yul\":2965:2998   */\n      0x5265656e7472616e637947756172643a207265656e7472616e742063616c6c00\n        /* \"#utility.yul\":2945:2963   */\n      0x44\n      dup3\n      add\n        /* \"#utility.yul\":2938:2999   */\n      mstore\n        /* \"#utility.yul\":3016:3034   */\n      0x64\n      add\n        /* \"@openzeppelin/contracts/security/ReentrancyGuard.sol\":2317:2380   */\n      tag_54\n        /* \"#utility.yul\":2685:3040   */\n      jump\n        /* \"@openzeppelin/contracts/security/ReentrancyGuard.sol\":2317:2380   */\n    tag_125:\n        /* \"@openzeppelin/contracts/security/ReentrancyGuard.sol\":1744:1745   */\n      0x02\n        /* \"@openzeppelin/contracts/security/ReentrancyGuard.sol\":2455:2462   */\n      0x00\n        /* \"@openzeppelin/contracts/security/ReentrancyGuard.sol\":2455:2473   */\n      dup2\n      dup2\n      sstore\n        /* \"NFTstaking.sol\":1643:1653  msg.sender */\n      caller\n        /* \"NFTstaking.sol\":1635:1654  stakers[msg.sender] */\n      dup2\n      mstore\n      0x20\n      swap2\n      swap1\n      swap2\n      mstore\n      0x40\n      swap1\n      keccak256\n        /* \"NFTstaking.sol\":1635:1667  stakers[msg.sender].amountStaked */\n      sload\n        /* \"NFTstaking.sol\":1635:1671  stakers[msg.sender].amountStaked > 0 */\n      iszero\n        /* \"NFTstaking.sol\":1631:1784  if (stakers[msg.sender].amountStaked > 0){... */\n      tag_128\n      jumpi\n        /* \"NFTstaking.sol\":1679:1694  uint256 rewards */\n      0x00\n        /* \"NFTstaking.sol\":1697:1725  calculateRewards(msg.sender) */\n      tag_129\n        /* \"NFTstaking.sol\":1714:1724  msg.sender */\n      caller\n        /* \"NFTstaking.sol\":1697:1713  calculateRewards */\n      tag_64\n        /* \"NFTstaking.sol\":1697:1725  calculateRewards(msg.sender) */\n      jump\t// in\n    tag_129:\n        /* \"NFTstaking.sol\":1741:1751  msg.sender */\n      caller\n        /* \"NFTstaking.sol\":1732:1752  stakers [msg.sender] */\n      0x00\n      swap1\n      dup2\n      mstore\n        /* \"NFTstaking.sol\":1732:1739  stakers */\n      0x02\n        /* \"NFTstaking.sol\":1732:1752  stakers [msg.sender] */\n      0x20\n      mstore\n      0x40\n      dup2\n      keccak256\n        /* \"NFTstaking.sol\":1732:1769  stakers [msg.sender].unclaimedRewards */\n      0x03\n      add\n        /* \"NFTstaking.sol\":1732:1780  stakers [msg.sender].unclaimedRewards += rewards */\n      dup1\n      sload\n        /* \"NFTstaking.sol\":1679:1725  uint256 rewards = calculateRewards(msg.sender) */\n      swap3\n      swap4\n      pop\n      dup4\n      swap3\n        /* \"NFTstaking.sol\":1732:1769  stakers [msg.sender].unclaimedRewards */\n      swap1\n      swap2\n        /* \"NFTstaking.sol\":1732:1752  stakers [msg.sender] */\n      swap1\n        /* \"NFTstaking.sol\":1732:1780  stakers [msg.sender].unclaimedRewards += rewards */\n      tag_130\n      swap1\n        /* \"NFTstaking.sol\":1679:1725  uint256 rewards = calculateRewards(msg.sender) */\n      dup5\n      swap1\n        /* \"NFTstaking.sol\":1732:1780  stakers [msg.sender].unclaimedRewards += rewards */\n      tag_66\n      jump\t// in\n    tag_130:\n      swap1\n      swap2\n      sstore\n      pop\n      pop\n      pop\n        /* \"NFTstaking.sol\":1631:1784  if (stakers[msg.sender].amountStaked > 0){... */\n    tag_128:\n        /* \"NFTstaking.sol\":1865:1896  nftCollection.ownerOf(_tokenId) */\n      mload(0x40)\n      shl(0xe1, 0x31a9108f)\n      dup2\n      mstore\n      0x04\n      dup2\n      add\n        /* \"#utility.yul\":2404:2429   */\n      dup3\n      swap1\n      mstore\n        /* \"NFTstaking.sol\":1899:1909  msg.sender */\n      caller\n      swap1\n      sub(shl(0xa0, 0x01), 0x01)\n        /* \"NFTstaking.sol\":1865:1878  nftCollection */\n      immutable(\"0x8e8fab5f003314da8d1873ea7720e8d9f47650136d916064d1edb8a11d682624\")\n        /* \"NFTstaking.sol\":1865:1886  nftCollection.ownerOf */\n      and\n      swap1\n      0x6352211e\n      swap1\n        /* \"#utility.yul\":2377:2395   */\n      0x24\n      add\n        /* \"NFTstaking.sol\":1865:1896  nftCollection.ownerOf(_tokenId) */\n      0x20\n      mload(0x40)\n      dup1\n      dup4\n      sub\n      dup2\n      dup7\n      gas\n      staticcall\n      iszero\n      dup1\n      iszero\n      tag_133\n      jumpi\n      returndatasize\n      0x00\n      dup1\n      returndatacopy\n      revert(0x00, returndatasize)\n    tag_133:\n      pop\n      pop\n      pop\n      pop\n      mload(0x40)\n      returndatasize\n      not(0x1f)\n      0x1f\n      dup3\n      add\n      and\n      dup3\n      add\n      dup1\n      0x40\n      mstore\n      pop\n      dup2\n      add\n      swap1\n      tag_134\n      swap2\n      swap1\n      tag_135\n      jump\t// in\n    tag_134:\n      sub(shl(0xa0, 0x01), 0x01)\n        /* \"NFTstaking.sol\":1865:1909  nftCollection.ownerOf(_tokenId) ==msg.sender */\n      and\n      eq\n        /* \"NFTstaking.sol\":1850:1944  require (... */\n      tag_136\n      jumpi\n      mload(0x40)\n      shl(0xe5, 0x461bcd)\n      dup2\n      mstore\n        /* \"#utility.yul\":3601:3603   */\n      0x20\n        /* \"NFTstaking.sol\":1850:1944  require (... */\n      0x04\n      dup3\n      add\n        /* \"#utility.yul\":3583:3604   */\n      mstore\n        /* \"#utility.yul\":3640:3642   */\n      0x17\n        /* \"#utility.yul\":3620:3638   */\n      0x24\n      dup3\n      add\n        /* \"#utility.yul\":3613:3643   */\n      mstore\n        /* \"#utility.yul\":3679:3704   */\n      0x596f7520646f6e2774206f776e2074686973204e465421000000000000000000\n        /* \"#utility.yul\":3659:3677   */\n      0x44\n      dup3\n      add\n        /* \"#utility.yul\":3652:3705   */\n      mstore\n        /* \"#utility.yul\":3722:3740   */\n      0x64\n      add\n        /* \"NFTstaking.sol\":1850:1944  require (... */\n      tag_54\n        /* \"#utility.yul\":3399:3746   */\n      jump\n        /* \"NFTstaking.sol\":1850:1944  require (... */\n    tag_136:\n        /* \"NFTstaking.sol\":2005:2068  nftCollection.transferFrom(msg.sender, address(this), _tokenId) */\n      mload(0x40)\n      shl(0xe0, 0x23b872dd)\n      dup2\n      mstore\n        /* \"NFTstaking.sol\":2032:2042  msg.sender */\n      caller\n        /* \"NFTstaking.sol\":2005:2068  nftCollection.transferFrom(msg.sender, address(this), _tokenId) */\n      0x04\n      dup3\n      add\n        /* \"#utility.yul\":4692:4726   */\n      mstore\n        /* \"NFTstaking.sol\":2052:2056  this */\n      address\n        /* \"#utility.yul\":4742:4760   */\n      0x24\n      dup3\n      add\n        /* \"#utility.yul\":4735:4778   */\n      mstore\n        /* \"#utility.yul\":4794:4812   */\n      0x44\n      dup2\n      add\n        /* \"#utility.yul\":4787:4821   */\n      dup3\n      swap1\n      mstore\n        /* \"NFTstaking.sol\":2005:2018  nftCollection */\n      immutable(\"0x8e8fab5f003314da8d1873ea7720e8d9f47650136d916064d1edb8a11d682624\")\n      sub(shl(0xa0, 0x01), 0x01)\n        /* \"NFTstaking.sol\":2005:2031  nftCollection.transferFrom */\n      and\n      swap1\n      0x23b872dd\n      swap1\n        /* \"#utility.yul\":4604:4622   */\n      0x64\n      add\n        /* \"NFTstaking.sol\":2005:2068  nftCollection.transferFrom(msg.sender, address(this), _tokenId) */\n      0x00\n      mload(0x40)\n      dup1\n      dup4\n      sub\n      dup2\n      0x00\n      dup8\n      dup1\n      extcodesize\n      iszero\n      dup1\n      iszero\n      tag_139\n      jumpi\n      0x00\n      dup1\n      revert\n    tag_139:\n      pop\n      gas\n      call\n      iszero\n      dup1\n      iszero\n      tag_141\n      jumpi\n      returndatasize\n      0x00\n      dup1\n      returndatacopy\n      revert(0x00, returndatasize)\n    tag_141:\n      pop\n      pop\n        /* \"NFTstaking.sol\":2132:2165  StakedToken(msg.sender, _tokenId) */\n      0x40\n      dup1\n      mload\n      dup1\n      dup3\n      add\n      dup3\n      mstore\n        /* \"NFTstaking.sol\":2144:2154  msg.sender */\n      caller\n        /* \"NFTstaking.sol\":2132:2165  StakedToken(msg.sender, _tokenId) */\n      dup1\n      dup3\n      mstore\n      0x20\n      dup1\n      dup4\n      add\n      dup8\n      dup2\n      mstore\n      0x00\n        /* \"NFTstaking.sol\":2213:2232  stakers[msg.sender] */\n      dup4\n      dup2\n      mstore\n        /* \"NFTstaking.sol\":2213:2220  stakers */\n      0x02\n        /* \"NFTstaking.sol\":2213:2232  stakers[msg.sender] */\n      dup1\n      dup5\n      mstore\n      swap6\n      dup2\n      keccak256\n        /* \"NFTstaking.sol\":2213:2245  stakers[msg.sender].stakedTokens */\n      0x01\n      dup1\n      dup3\n      add\n        /* \"NFTstaking.sol\":2213:2263  stakers[msg.sender].stakedTokens.push(stakedToken) */\n      dup1\n      sload\n      dup1\n      dup4\n      add\n      dup3\n      sstore\n      swap1\n      dup5\n      mstore\n      swap5\n      dup4\n      keccak256\n      dup8\n      mload\n      swap6\n      swap1\n      swap9\n      mul\n      swap1\n      swap8\n      add\n      dup1\n      sload\n      not(sub(shl(0xa0, 0x01), 0x01))\n      and\n      sub(shl(0xa0, 0x01), 0x01)\n      swap1\n      swap6\n      and\n      swap5\n      swap1\n      swap5\n      or\n      dup5\n      sstore\n      swap2\n      mload\n      swap3\n      swap1\n      swap6\n      add\n      swap2\n      swap1\n      swap2\n      sstore\n        /* \"NFTstaking.sol\":2314:2333  stakers[msg.sender] */\n      swap1\n      dup4\n      mstore\n        /* \"NFTstaking.sol\":2314:2348  stakers[msg.sender].amountStaked++ */\n      dup1\n      sload\n        /* \"NFTstaking.sol\":2132:2165  StakedToken(msg.sender, _tokenId) */\n      swap2\n      swap5\n      pop\n        /* \"NFTstaking.sol\":2314:2348  stakers[msg.sender].amountStaked++ */\n      swap1\n      swap3\n      pop\n        /* \"NFTstaking.sol\":2213:2232  stakers[msg.sender] */\n      swap1\n        /* \"NFTstaking.sol\":2314:2348  stakers[msg.sender].amountStaked++ */\n      tag_143\n      dup4\n      tag_76\n      jump\t// in\n    tag_143:\n      swap1\n      swap2\n      sstore\n      pop\n      pop\n      pop\n        /* \"NFTstaking.sol\":2414:2437  stakerAddress[_tokenId] */\n      0x00\n      swap1\n      dup2\n      mstore\n        /* \"NFTstaking.sol\":2414:2427  stakerAddress */\n      0x03\n        /* \"NFTstaking.sol\":2414:2437  stakerAddress[_tokenId] */\n      0x20\n      swap1\n      dup2\n      mstore\n      0x40\n      dup1\n      dup4\n      keccak256\n        /* \"NFTstaking.sol\":2414:2450  stakerAddress[_tokenId] = msg.sender */\n      dup1\n      sload\n      not(sub(shl(0xa0, 0x01), 0x01))\n      and\n        /* \"NFTstaking.sol\":2440:2450  msg.sender */\n      caller\n        /* \"NFTstaking.sol\":2414:2450  stakerAddress[_tokenId] = msg.sender */\n      swap1\n      dup2\n      or\n      swap1\n      swap2\n      sstore\n        /* \"NFTstaking.sol\":2501:2521  stakers [msg.sender] */\n      dup4\n      mstore\n        /* \"NFTstaking.sol\":2501:2508  stakers */\n      0x02\n        /* \"NFTstaking.sol\":2501:2521  stakers [msg.sender] */\n      swap2\n      dup3\n      swap1\n      mstore\n      dup3\n      keccak256\n        /* \"NFTstaking.sol\":2541:2556  block.timestamp */\n      timestamp\n        /* \"NFTstaking.sol\":2501:2538  stakers [msg.sender].timeOfLastUpdate */\n      swap2\n      add\n        /* \"NFTstaking.sol\":2501:2556  stakers [msg.sender].timeOfLastUpdate = block.timestamp */\n      sstore\n        /* \"NFTstaking.sol\":2414:2450  stakerAddress[_tokenId] = msg.sender */\n      0x01\n        /* \"@openzeppelin/contracts/security/ReentrancyGuard.sol\":2628:2650   */\n      swap1\n      sstore\n        /* \"NFTstaking.sol\":1489:2562  function stake  (uint256 _tokenId) external nonReentrant {... */\n      jump\t// out\n        /* \"NFTstaking.sol\":4780:4986  function avialabeRewards(address _staker) public view returns (uint256) {... */\n    tag_45:\n      sub(shl(0xa0, 0x01), 0x01)\n        /* \"NFTstaking.sol\":4919:4935  stakers[_staker] */\n      dup2\n      and\n        /* \"NFTstaking.sol\":4843:4850  uint256 */\n      0x00\n        /* \"NFTstaking.sol\":4919:4935  stakers[_staker] */\n      swap1\n      dup2\n      mstore\n        /* \"NFTstaking.sol\":4919:4926  stakers */\n      0x02\n        /* \"NFTstaking.sol\":4919:4935  stakers[_staker] */\n      0x20\n      mstore\n      0x40\n      dup2\n      keccak256\n        /* \"NFTstaking.sol\":4919:4952  stakers[_staker].unclaimedRewards */\n      0x03\n      add\n      sload\n        /* \"NFTstaking.sol\":4843:4850  uint256 */\n      dup2\n      swap1\n        /* \"NFTstaking.sol\":4882:4907  calculateRewards(_staker) */\n      tag_145\n        /* \"NFTstaking.sol\":4927:4934  _staker */\n      dup5\n        /* \"NFTstaking.sol\":4882:4898  calculateRewards */\n      tag_64\n        /* \"NFTstaking.sol\":4882:4907  calculateRewards(_staker) */\n      jump\t// in\n    tag_145:\n        /* \"NFTstaking.sol\":4882:4952  calculateRewards(_staker)+... */\n      tag_146\n      swap2\n      swap1\n      tag_66\n      jump\t// in\n    tag_146:\n        /* \"NFTstaking.sol\":4864:4952  uint256 rewards = calculateRewards(_staker)+... */\n      swap4\n        /* \"NFTstaking.sol\":4780:4986  function avialabeRewards(address _staker) public view returns (uint256) {... */\n      swap3\n      pop\n      pop\n      pop\n      jump\t// out\n        /* \"NFTstaking.sol\":4496:4771  function calculateRewards(address _staker)... */\n    tag_64:\n        /* \"NFTstaking.sol\":4742:4756  rewardsPerHour */\n      sload(0x01)\n      sub(shl(0xa0, 0x01), 0x01)\n        /* \"NFTstaking.sol\":4700:4716  stakers[_staker] */\n      dup3\n      and\n        /* \"NFTstaking.sol\":4576:4592  uint256 _rewards */\n      0x00\n        /* \"NFTstaking.sol\":4700:4716  stakers[_staker] */\n      swap1\n      dup2\n      mstore\n        /* \"NFTstaking.sol\":4700:4707  stakers */\n      0x02\n        /* \"NFTstaking.sol\":4700:4716  stakers[_staker] */\n      0x20\n      dup2\n      swap1\n      mstore\n      0x40\n      dup3\n      keccak256\n        /* \"NFTstaking.sol\":4700:4729  stakers[_staker].amountStaked */\n      dup1\n      sload\n        /* \"NFTstaking.sol\":4651:4684  stakers[_staker].timeOfLastUpdate */\n      swap2\n      add\n      sload\n        /* \"NFTstaking.sol\":4576:4592  uint256 _rewards */\n      swap2\n      swap3\n        /* \"NFTstaking.sol\":4758:4762  3600 */\n      0x0e10\n      swap3\n        /* \"NFTstaking.sol\":4742:4756  rewardsPerHour */\n      swap1\n      swap2\n        /* \"NFTstaking.sol\":4700:4729  stakers[_staker].amountStaked */\n      swap1\n        /* \"NFTstaking.sol\":4635:4684  block.timestamp-stakers[_staker].timeOfLastUpdate */\n      tag_148\n      swap1\n        /* \"NFTstaking.sol\":4635:4650  block.timestamp */\n      timestamp\n        /* \"NFTstaking.sol\":4635:4684  block.timestamp-stakers[_staker].timeOfLastUpdate */\n      tag_149\n      jump\t// in\n    tag_148:\n        /* \"NFTstaking.sol\":4634:4729  (block.timestamp-stakers[_staker].timeOfLastUpdate)*... */\n      tag_150\n      swap2\n      swap1\n      tag_151\n      jump\t// in\n    tag_150:\n        /* \"NFTstaking.sol\":4618:4756  (... */\n      tag_152\n      swap2\n      swap1\n      tag_151\n      jump\t// in\n    tag_152:\n        /* \"NFTstaking.sol\":4617:4762  ((... */\n      tag_153\n      swap2\n      swap1\n      tag_154\n      jump\t// in\n    tag_153:\n        /* \"NFTstaking.sol\":4610:4763  return(((... */\n      swap3\n        /* \"NFTstaking.sol\":4496:4771  function calculateRewards(address _staker)... */\n      swap2\n      pop\n      pop\n      jump\t// out\n        /* \"@openzeppelin/contracts/token/ERC20/utils/SafeERC20.sol\":763:968   */\n    tag_94:\n        /* \"@openzeppelin/contracts/token/ERC20/utils/SafeERC20.sol\":902:960   */\n      0x40\n      dup1\n      mload\n      sub(shl(0xa0, 0x01), 0x01)\n        /* \"#utility.yul\":6294:6349   */\n      dup5\n      and\n        /* \"@openzeppelin/contracts/token/ERC20/utils/SafeERC20.sol\":902:960   */\n      0x24\n      dup3\n      add\n        /* \"#utility.yul\":6276:6350   */\n      mstore\n        /* \"#utility.yul\":6366:6384   */\n      0x44\n      dup1\n      dup3\n      add\n        /* \"#utility.yul\":6359:6393   */\n      dup5\n      swap1\n      mstore\n        /* \"@openzeppelin/contracts/token/ERC20/utils/SafeERC20.sol\":902:960   */\n      dup3\n      mload\n      dup1\n      dup4\n      sub\n      swap1\n      swap2\n      add\n      dup2\n      mstore\n        /* \"#utility.yul\":6249:6267   */\n      0x64\n      swap1\n      swap2\n      add\n        /* \"@openzeppelin/contracts/token/ERC20/utils/SafeERC20.sol\":902:960   */\n      swap1\n      swap2\n      mstore\n      0x20\n      dup2\n      add\n      dup1\n      mload\n      0xffffffffffffffffffffffffffffffffffffffffffffffffffffffff\n      and\n      shl(0xe0, 0xa9059cbb)\n      or\n      swap1\n      mstore\n        /* \"@openzeppelin/contracts/token/ERC20/utils/SafeERC20.sol\":875:961   */\n      tag_156\n      swap1\n        /* \"@openzeppelin/contracts/token/ERC20/utils/SafeERC20.sol\":895:900   */\n      dup5\n      swap1\n        /* \"@openzeppelin/contracts/token/ERC20/utils/SafeERC20.sol\":875:894   */\n      tag_159\n        /* \"@openzeppelin/contracts/token/ERC20/utils/SafeERC20.sol\":875:961   */\n      jump\t// in\n    tag_156:\n        /* \"@openzeppelin/contracts/token/ERC20/utils/SafeERC20.sol\":763:968   */\n      pop\n      pop\n      pop\n      jump\t// out\n        /* \"@openzeppelin/contracts/token/ERC20/utils/SafeERC20.sol\":3747:4453   */\n    tag_159:\n        /* \"@openzeppelin/contracts/token/ERC20/utils/SafeERC20.sol\":4166:4189   */\n      0x00\n        /* \"@openzeppelin/contracts/token/ERC20/utils/SafeERC20.sol\":4192:4261   */\n      tag_161\n        /* \"@openzeppelin/contracts/token/ERC20/utils/SafeERC20.sol\":4220:4224   */\n      dup3\n        /* \"@openzeppelin/contracts/token/ERC20/utils/SafeERC20.sol\":4192:4261   */\n      mload(0x40)\n      dup1\n      0x40\n      add\n      0x40\n      mstore\n      dup1\n      0x20\n      dup2\n      mstore\n      0x20\n      add\n      0x5361666545524332303a206c6f772d6c6576656c2063616c6c206661696c6564\n      dup2\n      mstore\n      pop\n        /* \"@openzeppelin/contracts/token/ERC20/utils/SafeERC20.sol\":4200:4205   */\n      dup6\n      sub(shl(0xa0, 0x01), 0x01)\n        /* \"@openzeppelin/contracts/token/ERC20/utils/SafeERC20.sol\":4192:4219   */\n      and\n      tag_162\n      swap1\n        /* \"@openzeppelin/contracts/token/ERC20/utils/SafeERC20.sol\":4192:4261   */\n      swap3\n      swap2\n      swap1\n      0xffffffff\n      and\n      jump\t// in\n    tag_161:\n        /* \"@openzeppelin/contracts/token/ERC20/utils/SafeERC20.sol\":4275:4292   */\n      dup1\n      mload\n        /* \"@openzeppelin/contracts/token/ERC20/utils/SafeERC20.sol\":4166:4261   */\n      swap1\n      swap2\n      pop\n        /* \"@openzeppelin/contracts/token/ERC20/utils/SafeERC20.sol\":4275:4296   */\n      iszero\n        /* \"@openzeppelin/contracts/token/ERC20/utils/SafeERC20.sol\":4271:4447   */\n      tag_156\n      jumpi\n        /* \"@openzeppelin/contracts/token/ERC20/utils/SafeERC20.sol\":4370:4380   */\n      dup1\n        /* \"@openzeppelin/contracts/token/ERC20/utils/SafeERC20.sol\":4359:4389   */\n      dup1\n      0x20\n      add\n      swap1\n      mload\n      dup2\n      add\n      swap1\n      tag_164\n      swap2\n      swap1\n      tag_165\n      jump\t// in\n    tag_164:\n        /* \"@openzeppelin/contracts/token/ERC20/utils/SafeERC20.sol\":4351:4436   */\n      tag_156\n      jumpi\n      mload(0x40)\n      shl(0xe5, 0x461bcd)\n      dup2\n      mstore\n        /* \"#utility.yul\":6888:6890   */\n      0x20\n        /* \"@openzeppelin/contracts/token/ERC20/utils/SafeERC20.sol\":4351:4436   */\n      0x04\n      dup3\n      add\n        /* \"#utility.yul\":6870:6891   */\n      mstore\n        /* \"#utility.yul\":6927:6929   */\n      0x2a\n        /* \"#utility.yul\":6907:6925   */\n      0x24\n      dup3\n      add\n        /* \"#utility.yul\":6900:6930   */\n      mstore\n        /* \"#utility.yul\":6966:7000   */\n      0x5361666545524332303a204552433230206f7065726174696f6e20646964206e\n        /* \"#utility.yul\":6946:6964   */\n      0x44\n      dup3\n      add\n        /* \"#utility.yul\":6939:7001   */\n      mstore\n        /* \"#utility.yul\":7037:7049   */\n      0x6f74207375636365656400000000000000000000000000000000000000000000\n        /* \"#utility.yul\":7017:7035   */\n      0x64\n      dup3\n      add\n        /* \"#utility.yul\":7010:7050   */\n      mstore\n        /* \"#utility.yul\":7067:7086   */\n      0x84\n      add\n        /* \"@openzeppelin/contracts/token/ERC20/utils/SafeERC20.sol\":4351:4436   */\n      tag_54\n        /* \"#utility.yul\":6686:7092   */\n      jump\n        /* \"@openzeppelin/contracts/utils/Address.sol\":3861:4084   */\n    tag_162:\n        /* \"@openzeppelin/contracts/utils/Address.sol\":3994:4006   */\n      0x60\n        /* \"@openzeppelin/contracts/utils/Address.sol\":4025:4077   */\n      tag_170\n        /* \"@openzeppelin/contracts/utils/Address.sol\":4047:4053   */\n      dup5\n        /* \"@openzeppelin/contracts/utils/Address.sol\":4055:4059   */\n      dup5\n        /* \"@openzeppelin/contracts/utils/Address.sol\":4061:4062   */\n      0x00\n        /* \"@openzeppelin/contracts/utils/Address.sol\":4064:4076   */\n      dup6\n        /* \"@openzeppelin/contracts/utils/Address.sol\":4025:4046   */\n      tag_171\n        /* \"@openzeppelin/contracts/utils/Address.sol\":4025:4077   */\n      jump\t// in\n    tag_170:\n        /* \"@openzeppelin/contracts/utils/Address.sol\":4018:4077   */\n      swap5\n        /* \"@openzeppelin/contracts/utils/Address.sol\":3861:4084   */\n      swap4\n      pop\n      pop\n      pop\n      pop\n      jump\t// out\n        /* \"@openzeppelin/contracts/utils/Address.sol\":4948:5447   */\n    tag_171:\n        /* \"@openzeppelin/contracts/utils/Address.sol\":5113:5125   */\n      0x60\n        /* \"@openzeppelin/contracts/utils/Address.sol\":5170:5175   */\n      dup3\n        /* \"@openzeppelin/contracts/utils/Address.sol\":5145:5166   */\n      selfbalance\n        /* \"@openzeppelin/contracts/utils/Address.sol\":5145:5175   */\n      lt\n      iszero\n        /* \"@openzeppelin/contracts/utils/Address.sol\":5137:5218   */\n      tag_173\n      jumpi\n      mload(0x40)\n      shl(0xe5, 0x461bcd)\n      dup2\n      mstore\n        /* \"#utility.yul\":7299:7301   */\n      0x20\n        /* \"@openzeppelin/contracts/utils/Address.sol\":5137:5218   */\n      0x04\n      dup3\n      add\n        /* \"#utility.yul\":7281:7302   */\n      mstore\n        /* \"#utility.yul\":7338:7340   */\n      0x26\n        /* \"#utility.yul\":7318:7336   */\n      0x24\n      dup3\n      add\n        /* \"#utility.yul\":7311:7341   */\n      mstore\n        /* \"#utility.yul\":7377:7411   */\n      0x416464726573733a20696e73756666696369656e742062616c616e636520666f\n        /* \"#utility.yul\":7357:7375   */\n      0x44\n      dup3\n      add\n        /* \"#utility.yul\":7350:7412   */\n      mstore\n        /* \"#utility.yul\":7448:7456   */\n      0x722063616c6c0000000000000000000000000000000000000000000000000000\n        /* \"#utility.yul\":7428:7446   */\n      0x64\n      dup3\n      add\n        /* \"#utility.yul\":7421:7457   */\n      mstore\n        /* \"#utility.yul\":7474:7493   */\n      0x84\n      add\n        /* \"@openzeppelin/contracts/utils/Address.sol\":5137:5218   */\n      tag_54\n        /* \"#utility.yul\":7097:7499   */\n      jump\n        /* \"@openzeppelin/contracts/utils/Address.sol\":5137:5218   */\n    tag_173:\n      sub(shl(0xa0, 0x01), 0x01)\n        /* \"@openzeppelin/contracts/utils/Address.sol\":1465:1484   */\n      dup6\n      and\n      extcodesize\n        /* \"@openzeppelin/contracts/utils/Address.sol\":5228:5288   */\n      tag_178\n      jumpi\n      mload(0x40)\n      shl(0xe5, 0x461bcd)\n      dup2\n      mstore\n        /* \"#utility.yul\":7706:7708   */\n      0x20\n        /* \"@openzeppelin/contracts/utils/Address.sol\":5228:5288   */\n      0x04\n      dup3\n      add\n        /* \"#utility.yul\":7688:7709   */\n      mstore\n        /* \"#utility.yul\":7745:7747   */\n      0x1d\n        /* \"#utility.yul\":7725:7743   */\n      0x24\n      dup3\n      add\n        /* \"#utility.yul\":7718:7748   */\n      mstore\n        /* \"#utility.yul\":7784:7815   */\n      0x416464726573733a2063616c6c20746f206e6f6e2d636f6e7472616374000000\n        /* \"#utility.yul\":7764:7782   */\n      0x44\n      dup3\n      add\n        /* \"#utility.yul\":7757:7816   */\n      mstore\n        /* \"#utility.yul\":7833:7851   */\n      0x64\n      add\n        /* \"@openzeppelin/contracts/utils/Address.sol\":5228:5288   */\n      tag_54\n        /* \"#utility.yul\":7504:7857   */\n      jump\n        /* \"@openzeppelin/contracts/utils/Address.sol\":5228:5288   */\n    tag_178:\n        /* \"@openzeppelin/contracts/utils/Address.sol\":5300:5312   */\n      0x00\n        /* \"@openzeppelin/contracts/utils/Address.sol\":5314:5337   */\n      dup1\n        /* \"@openzeppelin/contracts/utils/Address.sol\":5341:5347   */\n      dup7\n      sub(shl(0xa0, 0x01), 0x01)\n        /* \"@openzeppelin/contracts/utils/Address.sol\":5341:5352   */\n      and\n        /* \"@openzeppelin/contracts/utils/Address.sol\":5360:5365   */\n      dup6\n        /* \"@openzeppelin/contracts/utils/Address.sol\":5367:5371   */\n      dup8\n        /* \"@openzeppelin/contracts/utils/Address.sol\":5341:5372   */\n      mload(0x40)\n      tag_181\n      swap2\n      swap1\n      tag_182\n      jump\t// in\n    tag_181:\n      0x00\n      mload(0x40)\n      dup1\n      dup4\n      sub\n      dup2\n      dup6\n      dup8\n      gas\n      call\n      swap3\n      pop\n      pop\n      pop\n      returndatasize\n      dup1\n      0x00\n      dup2\n      eq\n      tag_185\n      jumpi\n      mload(0x40)\n      swap2\n      pop\n      and(add(returndatasize, 0x3f), not(0x1f))\n      dup3\n      add\n      0x40\n      mstore\n      returndatasize\n      dup3\n      mstore\n      returndatasize\n      0x00\n      0x20\n      dup5\n      add\n      returndatacopy\n      jump(tag_184)\n    tag_185:\n      0x60\n      swap2\n      pop\n    tag_184:\n      pop\n        /* \"@openzeppelin/contracts/utils/Address.sol\":5299:5372   */\n      swap2\n      pop\n      swap2\n      pop\n        /* \"@openzeppelin/contracts/utils/Address.sol\":5389:5440   */\n      tag_186\n        /* \"@openzeppelin/contracts/utils/Address.sol\":5406:5413   */\n      dup3\n        /* \"@openzeppelin/contracts/utils/Address.sol\":5415:5425   */\n      dup3\n        /* \"@openzeppelin/contracts/utils/Address.sol\":5427:5439   */\n      dup7\n        /* \"@openzeppelin/contracts/utils/Address.sol\":5389:5405   */\n      tag_187\n        /* \"@openzeppelin/contracts/utils/Address.sol\":5389:5440   */\n      jump\t// in\n    tag_186:\n        /* \"@openzeppelin/contracts/utils/Address.sol\":5382:5440   */\n      swap8\n        /* \"@openzeppelin/contracts/utils/Address.sol\":4948:5447   */\n      swap7\n      pop\n      pop\n      pop\n      pop\n      pop\n      pop\n      pop\n      jump\t// out\n        /* \"@openzeppelin/contracts/utils/Address.sol\":7561:8303   */\n    tag_187:\n        /* \"@openzeppelin/contracts/utils/Address.sol\":7707:7719   */\n      0x60\n        /* \"@openzeppelin/contracts/utils/Address.sol\":7735:7742   */\n      dup4\n        /* \"@openzeppelin/contracts/utils/Address.sol\":7731:8297   */\n      iszero\n      tag_190\n      jumpi\n      pop\n        /* \"@openzeppelin/contracts/utils/Address.sol\":7765:7775   */\n      dup2\n        /* \"@openzeppelin/contracts/utils/Address.sol\":7758:7775   */\n      jump(tag_146)\n        /* \"@openzeppelin/contracts/utils/Address.sol\":7731:8297   */\n    tag_190:\n        /* \"@openzeppelin/contracts/utils/Address.sol\":7876:7893   */\n      dup3\n      mload\n        /* \"@openzeppelin/contracts/utils/Address.sol\":7876:7897   */\n      iszero\n        /* \"@openzeppelin/contracts/utils/Address.sol\":7872:8287   */\n      tag_192\n      jumpi\n        /* \"@openzeppelin/contracts/utils/Address.sol\":8120:8130   */\n      dup3\n        /* \"@openzeppelin/contracts/utils/Address.sol\":8114:8131   */\n      mload\n        /* \"@openzeppelin/contracts/utils/Address.sol\":8180:8195   */\n      dup1\n        /* \"@openzeppelin/contracts/utils/Address.sol\":8167:8177   */\n      dup5\n        /* \"@openzeppelin/contracts/utils/Address.sol\":8163:8165   */\n      0x20\n        /* \"@openzeppelin/contracts/utils/Address.sol\":8159:8178   */\n      add\n        /* \"@openzeppelin/contracts/utils/Address.sol\":8152:8196   */\n      revert\n        /* \"@openzeppelin/contracts/utils/Address.sol\":7872:8287   */\n    tag_192:\n        /* \"@openzeppelin/contracts/utils/Address.sol\":8259:8271   */\n      dup2\n        /* \"@openzeppelin/contracts/utils/Address.sol\":8252:8272   */\n      mload(0x40)\n      shl(0xe5, 0x461bcd)\n      dup2\n      mstore\n      0x04\n      add\n      tag_54\n      swap2\n      swap1\n      tag_195\n      jump\t// in\n        /* \"#utility.yul\":14:194   */\n    tag_16:\n        /* \"#utility.yul\":73:79   */\n      0x00\n        /* \"#utility.yul\":126:128   */\n      0x20\n        /* \"#utility.yul\":114:123   */\n      dup3\n        /* \"#utility.yul\":105:112   */\n      dup5\n        /* \"#utility.yul\":101:124   */\n      sub\n        /* \"#utility.yul\":97:129   */\n      slt\n        /* \"#utility.yul\":94:146   */\n      iszero\n      tag_201\n      jumpi\n        /* \"#utility.yul\":142:143   */\n      0x00\n        /* \"#utility.yul\":139:140   */\n      dup1\n        /* \"#utility.yul\":132:144   */\n      revert\n        /* \"#utility.yul\":94:146   */\n    tag_201:\n      pop\n        /* \"#utility.yul\":165:188   */\n      calldataload\n      swap2\n        /* \"#utility.yul\":14:194   */\n      swap1\n      pop\n      jump\t// out\n        /* \"#utility.yul\":199:353   */\n    tag_196:\n      sub(shl(0xa0, 0x01), 0x01)\n        /* \"#utility.yul\":278:283   */\n      dup2\n        /* \"#utility.yul\":274:328   */\n      and\n        /* \"#utility.yul\":267:272   */\n      dup2\n        /* \"#utility.yul\":264:329   */\n      eq\n        /* \"#utility.yul\":254:347   */\n      tag_93\n      jumpi\n        /* \"#utility.yul\":343:344   */\n      0x00\n        /* \"#utility.yul\":340:341   */\n      dup1\n        /* \"#utility.yul\":333:345   */\n      revert\n        /* \"#utility.yul\":358:605   */\n    tag_22:\n        /* \"#utility.yul\":417:423   */\n      0x00\n        /* \"#utility.yul\":470:472   */\n      0x20\n        /* \"#utility.yul\":458:467   */\n      dup3\n        /* \"#utility.yul\":449:456   */\n      dup5\n        /* \"#utility.yul\":445:468   */\n      sub\n        /* \"#utility.yul\":441:473   */\n      slt\n        /* \"#utility.yul\":438:490   */\n      iszero\n      tag_205\n      jumpi\n        /* \"#utility.yul\":486:487   */\n      0x00\n        /* \"#utility.yul\":483:484   */\n      dup1\n        /* \"#utility.yul\":476:488   */\n      revert\n        /* \"#utility.yul\":438:490   */\n    tag_205:\n        /* \"#utility.yul\":525:534   */\n      dup2\n        /* \"#utility.yul\":512:535   */\n      calldataload\n        /* \"#utility.yul\":544:575   */\n      tag_146\n        /* \"#utility.yul\":569:574   */\n      dup2\n        /* \"#utility.yul\":544:575   */\n      tag_196\n      jump\t// in\n        /* \"#utility.yul\":610:1451   */\n    tag_25:\n        /* \"#utility.yul\":835:837   */\n      0x20\n        /* \"#utility.yul\":887:908   */\n      dup1\n      dup3\n      mstore\n        /* \"#utility.yul\":957:970   */\n      dup3\n      mload\n        /* \"#utility.yul\":860:878   */\n      dup3\n      dup3\n      add\n        /* \"#utility.yul\":979:1001   */\n      dup2\n      swap1\n      mstore\n        /* \"#utility.yul\":806:810   */\n      0x00\n      swap2\n        /* \"#utility.yul\":835:837   */\n      swap1\n        /* \"#utility.yul\":1020:1022   */\n      0x40\n      swap1\n        /* \"#utility.yul\":1038:1056   */\n      dup2\n      dup6\n      add\n      swap1\n        /* \"#utility.yul\":1079:1094   */\n      dup7\n      dup5\n      add\n        /* \"#utility.yul\":806:810   */\n      dup6\n        /* \"#utility.yul\":1122:1425   */\n    tag_208:\n        /* \"#utility.yul\":1136:1142   */\n      dup3\n        /* \"#utility.yul\":1133:1134   */\n      dup2\n        /* \"#utility.yul\":1130:1143   */\n      lt\n        /* \"#utility.yul\":1122:1425   */\n      iszero\n      tag_210\n      jumpi\n        /* \"#utility.yul\":1195:1208   */\n      dup2\n      mload\n        /* \"#utility.yul\":1237:1246   */\n      dup1\n      mload\n      sub(shl(0xa0, 0x01), 0x01)\n        /* \"#utility.yul\":1233:1291   */\n      and\n        /* \"#utility.yul\":1221:1292   */\n      dup6\n      mstore\n        /* \"#utility.yul\":1332:1343   */\n      dup7\n      add\n        /* \"#utility.yul\":1326:1344   */\n      mload\n        /* \"#utility.yul\":1312:1324   */\n      dup7\n      dup6\n      add\n        /* \"#utility.yul\":1305:1345   */\n      mstore\n        /* \"#utility.yul\":1365:1377   */\n      swap3\n      dup5\n      add\n      swap3\n        /* \"#utility.yul\":1400:1415   */\n      swap1\n      dup6\n      add\n      swap1\n        /* \"#utility.yul\":1158:1159   */\n      0x01\n        /* \"#utility.yul\":1151:1160   */\n      add\n        /* \"#utility.yul\":1122:1425   */\n      jump(tag_208)\n    tag_210:\n      pop\n        /* \"#utility.yul\":1442:1445   */\n      swap2\n      swap8\n        /* \"#utility.yul\":610:1451   */\n      swap7\n      pop\n      pop\n      pop\n      pop\n      pop\n      pop\n      pop\n      jump\t// out\n        /* \"#utility.yul\":3751:3878   */\n    tag_197:\n        /* \"#utility.yul\":3812:3822   */\n      0x4e487b71\n        /* \"#utility.yul\":3807:3810   */\n      0xe0\n        /* \"#utility.yul\":3803:3823   */\n      shl\n        /* \"#utility.yul\":3800:3801   */\n      0x00\n        /* \"#utility.yul\":3793:3824   */\n      mstore\n        /* \"#utility.yul\":3843:3847   */\n      0x11\n        /* \"#utility.yul\":3840:3841   */\n      0x04\n        /* \"#utility.yul\":3833:3848   */\n      mstore\n        /* \"#utility.yul\":3867:3871   */\n      0x24\n        /* \"#utility.yul\":3864:3865   */\n      0x00\n        /* \"#utility.yul\":3857:3872   */\n      revert\n        /* \"#utility.yul\":3883:4011   */\n    tag_66:\n        /* \"#utility.yul\":3923:3926   */\n      0x00\n        /* \"#utility.yul\":3954:3955   */\n      dup3\n        /* \"#utility.yul\":3950:3956   */\n      not\n        /* \"#utility.yul\":3947:3948   */\n      dup3\n        /* \"#utility.yul\":3944:3957   */\n      gt\n        /* \"#utility.yul\":3941:3980   */\n      iszero\n      tag_222\n      jumpi\n        /* \"#utility.yul\":3960:3978   */\n      tag_222\n      tag_197\n      jump\t// in\n    tag_222:\n      pop\n        /* \"#utility.yul\":3996:4005   */\n      add\n      swap1\n        /* \"#utility.yul\":3883:4011   */\n      jump\t// out\n        /* \"#utility.yul\":4016:4143   */\n    tag_72:\n        /* \"#utility.yul\":4077:4087   */\n      0x4e487b71\n        /* \"#utility.yul\":4072:4075   */\n      0xe0\n        /* \"#utility.yul\":4068:4088   */\n      shl\n        /* \"#utility.yul\":4065:4066   */\n      0x00\n        /* \"#utility.yul\":4058:4089   */\n      mstore\n        /* \"#utility.yul\":4108:4112   */\n      0x32\n        /* \"#utility.yul\":4105:4106   */\n      0x04\n        /* \"#utility.yul\":4098:4113   */\n      mstore\n        /* \"#utility.yul\":4132:4136   */\n      0x24\n        /* \"#utility.yul\":4129:4130   */\n      0x00\n        /* \"#utility.yul\":4122:4137   */\n      revert\n        /* \"#utility.yul\":4148:4283   */\n    tag_76:\n        /* \"#utility.yul\":4187:4190   */\n      0x00\n        /* \"#utility.yul\":4208:4225   */\n      0x01\n      dup3\n      add\n        /* \"#utility.yul\":4205:4248   */\n      tag_226\n      jumpi\n        /* \"#utility.yul\":4228:4246   */\n      tag_226\n      tag_197\n      jump\t// in\n    tag_226:\n      pop\n        /* \"#utility.yul\":4275:4276   */\n      0x01\n        /* \"#utility.yul\":4264:4277   */\n      add\n      swap1\n        /* \"#utility.yul\":4148:4283   */\n      jump\t// out\n        /* \"#utility.yul\":4288:4424   */\n    tag_81:\n        /* \"#utility.yul\":4327:4330   */\n      0x00\n        /* \"#utility.yul\":4355:4360   */\n      dup2\n        /* \"#utility.yul\":4345:4384   */\n      tag_229\n      jumpi\n        /* \"#utility.yul\":4364:4382   */\n      tag_229\n      tag_197\n      jump\t// in\n    tag_229:\n      pop\n      not(0x00)\n        /* \"#utility.yul\":4400:4418   */\n      add\n      swap1\n        /* \"#utility.yul\":4288:4424   */\n      jump\t// out\n        /* \"#utility.yul\":5189:5316   */\n    tag_99:\n        /* \"#utility.yul\":5250:5260   */\n      0x4e487b71\n        /* \"#utility.yul\":5245:5248   */\n      0xe0\n        /* \"#utility.yul\":5241:5261   */\n      shl\n        /* \"#utility.yul\":5238:5239   */\n      0x00\n        /* \"#utility.yul\":5231:5262   */\n      mstore\n        /* \"#utility.yul\":5281:5285   */\n      0x41\n        /* \"#utility.yul\":5278:5279   */\n      0x04\n        /* \"#utility.yul\":5271:5286   */\n      mstore\n        /* \"#utility.yul\":5305:5309   */\n      0x24\n        /* \"#utility.yul\":5302:5303   */\n      0x00\n        /* \"#utility.yul\":5295:5310   */\n      revert\n        /* \"#utility.yul\":5321:5572   */\n    tag_135:\n        /* \"#utility.yul\":5391:5397   */\n      0x00\n        /* \"#utility.yul\":5444:5446   */\n      0x20\n        /* \"#utility.yul\":5432:5441   */\n      dup3\n        /* \"#utility.yul\":5423:5430   */\n      dup5\n        /* \"#utility.yul\":5419:5442   */\n      sub\n        /* \"#utility.yul\":5415:5447   */\n      slt\n        /* \"#utility.yul\":5412:5464   */\n      iszero\n      tag_234\n      jumpi\n        /* \"#utility.yul\":5460:5461   */\n      0x00\n        /* \"#utility.yul\":5457:5458   */\n      dup1\n        /* \"#utility.yul\":5450:5462   */\n      revert\n        /* \"#utility.yul\":5412:5464   */\n    tag_234:\n        /* \"#utility.yul\":5492:5501   */\n      dup2\n        /* \"#utility.yul\":5486:5502   */\n      mload\n        /* \"#utility.yul\":5511:5542   */\n      tag_146\n        /* \"#utility.yul\":5536:5541   */\n      dup2\n        /* \"#utility.yul\":5511:5542   */\n      tag_196\n      jump\t// in\n        /* \"#utility.yul\":5577:5702   */\n    tag_149:\n        /* \"#utility.yul\":5617:5621   */\n      0x00\n        /* \"#utility.yul\":5645:5646   */\n      dup3\n        /* \"#utility.yul\":5642:5643   */\n      dup3\n        /* \"#utility.yul\":5639:5647   */\n      lt\n        /* \"#utility.yul\":5636:5670   */\n      iszero\n      tag_238\n      jumpi\n        /* \"#utility.yul\":5650:5668   */\n      tag_238\n      tag_197\n      jump\t// in\n    tag_238:\n      pop\n        /* \"#utility.yul\":5687:5696   */\n      sub\n      swap1\n        /* \"#utility.yul\":5577:5702   */\n      jump\t// out\n        /* \"#utility.yul\":5707:5875   */\n    tag_151:\n        /* \"#utility.yul\":5747:5754   */\n      0x00\n        /* \"#utility.yul\":5813:5814   */\n      dup2\n        /* \"#utility.yul\":5809:5810   */\n      0x00\n        /* \"#utility.yul\":5805:5811   */\n      not\n        /* \"#utility.yul\":5801:5815   */\n      div\n        /* \"#utility.yul\":5798:5799   */\n      dup4\n        /* \"#utility.yul\":5795:5816   */\n      gt\n        /* \"#utility.yul\":5790:5791   */\n      dup3\n        /* \"#utility.yul\":5783:5792   */\n      iszero\n        /* \"#utility.yul\":5776:5793   */\n      iszero\n        /* \"#utility.yul\":5772:5817   */\n      and\n        /* \"#utility.yul\":5769:5840   */\n      iszero\n      tag_241\n      jumpi\n        /* \"#utility.yul\":5820:5838   */\n      tag_241\n      tag_197\n      jump\t// in\n    tag_241:\n      pop\n        /* \"#utility.yul\":5860:5869   */\n      mul\n      swap1\n        /* \"#utility.yul\":5707:5875   */\n      jump\t// out\n        /* \"#utility.yul\":5880:6097   */\n    tag_154:\n        /* \"#utility.yul\":5920:5921   */\n      0x00\n        /* \"#utility.yul\":5946:5947   */\n      dup3\n        /* \"#utility.yul\":5936:6068   */\n      tag_243\n      jumpi\n        /* \"#utility.yul\":5990:6000   */\n      0x4e487b71\n        /* \"#utility.yul\":5985:5988   */\n      0xe0\n        /* \"#utility.yul\":5981:6001   */\n      shl\n        /* \"#utility.yul\":5978:5979   */\n      0x00\n        /* \"#utility.yul\":5971:6002   */\n      mstore\n        /* \"#utility.yul\":6025:6029   */\n      0x12\n        /* \"#utility.yul\":6022:6023   */\n      0x04\n        /* \"#utility.yul\":6015:6030   */\n      mstore\n        /* \"#utility.yul\":6053:6057   */\n      0x24\n        /* \"#utility.yul\":6050:6051   */\n      0x00\n        /* \"#utility.yul\":6043:6058   */\n      revert\n        /* \"#utility.yul\":5936:6068   */\n    tag_243:\n      pop\n        /* \"#utility.yul\":6082:6091   */\n      div\n      swap1\n        /* \"#utility.yul\":5880:6097   */\n      jump\t// out\n        /* \"#utility.yul\":6404:6681   */\n    tag_165:\n        /* \"#utility.yul\":6471:6477   */\n      0x00\n        /* \"#utility.yul\":6524:6526   */\n      0x20\n        /* \"#utility.yul\":6512:6521   */\n      dup3\n        /* \"#utility.yul\":6503:6510   */\n      dup5\n        /* \"#utility.yul\":6499:6522   */\n      sub\n        /* \"#utility.yul\":6495:6527   */\n      slt\n        /* \"#utility.yul\":6492:6544   */\n      iszero\n      tag_246\n      jumpi\n        /* \"#utility.yul\":6540:6541   */\n      0x00\n        /* \"#utility.yul\":6537:6538   */\n      dup1\n        /* \"#utility.yul\":6530:6542   */\n      revert\n        /* \"#utility.yul\":6492:6544   */\n    tag_246:\n        /* \"#utility.yul\":6572:6581   */\n      dup2\n        /* \"#utility.yul\":6566:6582   */\n      mload\n        /* \"#utility.yul\":6625:6630   */\n      dup1\n        /* \"#utility.yul\":6618:6631   */\n      iszero\n        /* \"#utility.yul\":6611:6632   */\n      iszero\n        /* \"#utility.yul\":6604:6609   */\n      dup2\n        /* \"#utility.yul\":6601:6633   */\n      eq\n        /* \"#utility.yul\":6591:6651   */\n      tag_146\n      jumpi\n        /* \"#utility.yul\":6647:6648   */\n      0x00\n        /* \"#utility.yul\":6644:6645   */\n      dup1\n        /* \"#utility.yul\":6637:6649   */\n      revert\n        /* \"#utility.yul\":7862:8120   */\n    tag_198:\n        /* \"#utility.yul\":7934:7935   */\n      0x00\n        /* \"#utility.yul\":7944:8057   */\n    tag_252:\n        /* \"#utility.yul\":7958:7964   */\n      dup4\n        /* \"#utility.yul\":7955:7956   */\n      dup2\n        /* \"#utility.yul\":7952:7965   */\n      lt\n        /* \"#utility.yul\":7944:8057   */\n      iszero\n      tag_254\n      jumpi\n        /* \"#utility.yul\":8034:8045   */\n      dup2\n      dup2\n      add\n        /* \"#utility.yul\":8028:8046   */\n      mload\n        /* \"#utility.yul\":8015:8026   */\n      dup4\n      dup3\n      add\n        /* \"#utility.yul\":8008:8047   */\n      mstore\n        /* \"#utility.yul\":7980:7982   */\n      0x20\n        /* \"#utility.yul\":7973:7983   */\n      add\n        /* \"#utility.yul\":7944:8057   */\n      jump(tag_252)\n    tag_254:\n        /* \"#utility.yul\":8075:8081   */\n      dup4\n        /* \"#utility.yul\":8072:8073   */\n      dup2\n        /* \"#utility.yul\":8069:8082   */\n      gt\n        /* \"#utility.yul\":8066:8114   */\n      iszero\n      tag_255\n      jumpi\n        /* \"#utility.yul\":8110:8111   */\n      0x00\n        /* \"#utility.yul\":8101:8107   */\n      dup5\n        /* \"#utility.yul\":8096:8099   */\n      dup5\n        /* \"#utility.yul\":8092:8108   */\n      add\n        /* \"#utility.yul\":8085:8112   */\n      mstore\n        /* \"#utility.yul\":8066:8114   */\n    tag_255:\n      pop\n        /* \"#utility.yul\":7862:8120   */\n      pop\n      pop\n      pop\n      jump\t// out\n        /* \"#utility.yul\":8125:8399   */\n    tag_182:\n        /* \"#utility.yul\":8254:8257   */\n      0x00\n        /* \"#utility.yul\":8292:8298   */\n      dup3\n        /* \"#utility.yul\":8286:8299   */\n      mload\n        /* \"#utility.yul\":8308:8361   */\n      tag_257\n        /* \"#utility.yul\":8354:8360   */\n      dup2\n        /* \"#utility.yul\":8349:8352   */\n      dup5\n        /* \"#utility.yul\":8342:8346   */\n      0x20\n        /* \"#utility.yul\":8334:8340   */\n      dup8\n        /* \"#utility.yul\":8330:8347   */\n      add\n        /* \"#utility.yul\":8308:8361   */\n      tag_198\n      jump\t// in\n    tag_257:\n        /* \"#utility.yul\":8377:8393   */\n      swap2\n      swap1\n      swap2\n      add\n      swap3\n        /* \"#utility.yul\":8125:8399   */\n      swap2\n      pop\n      pop\n      jump\t// out\n        /* \"#utility.yul\":8404:8787   */\n    tag_195:\n        /* \"#utility.yul\":8553:8555   */\n      0x20\n        /* \"#utility.yul\":8542:8551   */\n      dup2\n        /* \"#utility.yul\":8535:8556   */\n      mstore\n        /* \"#utility.yul\":8516:8520   */\n      0x00\n        /* \"#utility.yul\":8585:8591   */\n      dup3\n        /* \"#utility.yul\":8579:8592   */\n      mload\n        /* \"#utility.yul\":8628:8634   */\n      dup1\n        /* \"#utility.yul\":8623:8625   */\n      0x20\n        /* \"#utility.yul\":8612:8621   */\n      dup5\n        /* \"#utility.yul\":8608:8626   */\n      add\n        /* \"#utility.yul\":8601:8635   */\n      mstore\n        /* \"#utility.yul\":8644:8710   */\n      tag_259\n        /* \"#utility.yul\":8703:8709   */\n      dup2\n        /* \"#utility.yul\":8698:8700   */\n      0x40\n        /* \"#utility.yul\":8687:8696   */\n      dup6\n        /* \"#utility.yul\":8683:8701   */\n      add\n        /* \"#utility.yul\":8678:8680   */\n      0x20\n        /* \"#utility.yul\":8670:8676   */\n      dup8\n        /* \"#utility.yul\":8666:8681   */\n      add\n        /* \"#utility.yul\":8644:8710   */\n      tag_198\n      jump\t// in\n    tag_259:\n        /* \"#utility.yul\":8771:8773   */\n      0x1f\n        /* \"#utility.yul\":8750:8765   */\n      add\n      not(0x1f)\n        /* \"#utility.yul\":8746:8775   */\n      and\n        /* \"#utility.yul\":8731:8776   */\n      swap2\n      swap1\n      swap2\n      add\n        /* \"#utility.yul\":8778:8780   */\n      0x40\n        /* \"#utility.yul\":8727:8781   */\n      add\n      swap3\n        /* \"#utility.yul\":8404:8787   */\n      swap2\n      pop\n      pop\n      jump\t// out\n\n    auxdata: 0xa2646970667358221220a0cafc0572b7ad8d0963580d619027511f01f49903d6962fb7422dfa0c9b055564736f6c634300080d0033\n}\n",
    "bytecode": {
      "linkReferences": {},
      "object": "60c0604052620186a060015534801561001757600080fd5b506040516111563803806111568339810160408190526100369161006a565b60016000556001600160a01b0391821660a052166080526100a4565b6001600160a01b038116811461006757600080fd5b50565b6000806040838503121561007d57600080fd5b825161008881610052565b602084015190925061009981610052565b809150509250929050565b60805160a0516110726100e46000396000818160f30152818161047b0152818161088301526109660152600081816101d8015261059201526110726000f3fe608060405234801561001057600080fd5b50600436106100a35760003560e01c80639168ae7211610076578063a694fc3a1161005b578063a694fc3a1461019f578063c6a8b32e146101b2578063d1af0c7d146101d357600080fd5b80639168ae721461012d578063940670451461017657600080fd5b80632e1a7d4d146100a8578063372500ab146100bd57806363c28db1146100c55780636588103b146100ee575b600080fd5b6100bb6100b6366004610df9565b6101fa565b005b6100bb6104f5565b6100d86100d3366004610e27565b6105c4565b6040516100e59190610e44565b60405180910390f35b6101157f000000000000000000000000000000000000000000000000000000000000000081565b6040516001600160a01b0390911681526020016100e5565b61015b61013b366004610e27565b600260208190526000918252604090912080549181015460039091015483565b604080519384526020840192909252908201526060016100e5565b610115610184366004610df9565b6003602052600090815260409020546001600160a01b031681565b6100bb6101ad366004610df9565b6107be565b6101c56101c0366004610e27565b610a7f565b6040519081526020016100e5565b6101157f000000000000000000000000000000000000000000000000000000000000000081565b6002600054036102515760405162461bcd60e51b815260206004820152601f60248201527f5265656e7472616e637947756172643a207265656e7472616e742063616c6c0060448201526064015b60405180910390fd5b6002600081815533815260209190915260409020546102b25760405162461bcd60e51b815260206004820152601960248201527f596f752068617665206e6f20546f6b656e73207374616b6564000000000000006044820152606401610248565b6000818152600360205260409020546001600160a01b031633146103185760405162461bcd60e51b815260206004820152601760248201527f596f7520646f6e2774206f776e2074686973204e4654210000000000000000006044820152606401610248565b600061032333610ab7565b3360009081526002602052604081206003018054929350839290919061034a908490610eb2565b9091555060009050805b336000908152600260205260409020600101548110156103c65733600090815260026020526040902060010180548591908390811061039557610395610eca565b906000526020600020906002020160010154036103b4578091506103c6565b806103be81610ee0565b915050610354565b503360009081526002602052604081206001018054839081106103eb576103eb610eca565b6000918252602080832060029283020180546001600160a01b0319166001600160a01b0395909516949094179093553382529091526040812080549161043083610ef9565b90915550506000838152600360205260409081902080546001600160a01b0319169055516323b872dd60e01b8152306004820152336024820152604481018490526001600160a01b037f000000000000000000000000000000000000000000000000000000000000000016906323b872dd90606401600060405180830381600087803b1580156104bf57600080fd5b505af11580156104d3573d6000803e3d6000fd5b5050336000908152600260208190526040822042910155600190555050505050565b33600081815260026020526040812060030154909161051390610ab7565b61051d9190610eb2565b90506000811161056f5760405162461bcd60e51b815260206004820152601c60248201527f596f752068617665206e6f207265776172647320746f20636c61696d000000006044820152606401610248565b33600081815260026020819052604082204291810191909155600301556105c1907f00000000000000000000000000000000000000000000000000000000000000006001600160a01b03169083610b10565b50565b6001600160a01b0381166000908152600260205260409020546060901561077a576001600160a01b03821660009081526002602052604081205467ffffffffffffffff81111561061657610616610f10565b60405190808252806020026020018201604052801561065b57816020015b60408051808201909152600080825260208201528152602001906001900390816106345790505b5090506000805b6001600160a01b038516600090815260026020526040902060010154811015610771576001600160a01b03851660009081526002602052604081206001018054839081106106b2576106b2610eca565b60009182526020909120600290910201546001600160a01b03161461075f576001600160a01b03851660009081526002602052604090206001018054829081106106fe576106fe610eca565b60009182526020918290206040805180820190915260029092020180546001600160a01b031682526001015491810191909152835184908490811061074557610745610eca565b6020026020010181905250818061075b90610ee0565b9250505b8061076981610ee0565b915050610662565b50909392505050565b60408051600080825260208201909252906107b7565b60408051808201909152600080825260208201528152602001906001900390816107905790505b5092915050565b6002600054036108105760405162461bcd60e51b815260206004820152601f60248201527f5265656e7472616e637947756172643a207265656e7472616e742063616c6c006044820152606401610248565b6002600081815533815260209190915260409020541561086357600061083533610ab7565b3360009081526002602052604081206003018054929350839290919061085c908490610eb2565b9091555050505b6040516331a9108f60e11b81526004810182905233906001600160a01b037f00000000000000000000000000000000000000000000000000000000000000001690636352211e90602401602060405180830381865afa1580156108ca573d6000803e3d6000fd5b505050506040513d601f19601f820116820180604052508101906108ee9190610f26565b6001600160a01b0316146109445760405162461bcd60e51b815260206004820152601760248201527f596f7520646f6e2774206f776e2074686973204e4654210000000000000000006044820152606401610248565b6040516323b872dd60e01b8152336004820152306024820152604481018290527f00000000000000000000000000000000000000000000000000000000000000006001600160a01b0316906323b872dd90606401600060405180830381600087803b1580156109b257600080fd5b505af11580156109c6573d6000803e3d6000fd5b50506040805180820182523380825260208083018781526000838152600280845295812060018082018054808301825590845294832087519590980290970180546001600160a01b0319166001600160a01b0390951694909417845591519290950191909155908352805491945090925090610a4183610ee0565b909155505050600090815260036020908152604080832080546001600160a01b03191633908117909155835260029182905282204291015560019055565b6001600160a01b0381166000908152600260205260408120600301548190610aa684610ab7565b610ab09190610eb2565b9392505050565b6001546001600160a01b0382166000908152600260208190526040822080549101549192610e1092909190610aec9042610f43565b610af69190610f5a565b610b009190610f5a565b610b0a9190610f79565b92915050565b604080516001600160a01b038416602482015260448082018490528251808303909101815260649091019091526020810180517bffffffffffffffffffffffffffffffffffffffffffffffffffffffff1663a9059cbb60e01b179052610b77908490610b7c565b505050565b6000610bd1826040518060400160405280602081526020017f5361666545524332303a206c6f772d6c6576656c2063616c6c206661696c6564815250856001600160a01b0316610c619092919063ffffffff16565b805190915015610b775780806020019051810190610bef9190610f9b565b610b775760405162461bcd60e51b815260206004820152602a60248201527f5361666545524332303a204552433230206f7065726174696f6e20646964206e60448201527f6f742073756363656564000000000000000000000000000000000000000000006064820152608401610248565b6060610c708484600085610c78565b949350505050565b606082471015610cf05760405162461bcd60e51b815260206004820152602660248201527f416464726573733a20696e73756666696369656e742062616c616e636520666f60448201527f722063616c6c00000000000000000000000000000000000000000000000000006064820152608401610248565b6001600160a01b0385163b610d475760405162461bcd60e51b815260206004820152601d60248201527f416464726573733a2063616c6c20746f206e6f6e2d636f6e74726163740000006044820152606401610248565b600080866001600160a01b03168587604051610d639190610fed565b60006040518083038185875af1925050503d8060008114610da0576040519150601f19603f3d011682016040523d82523d6000602084013e610da5565b606091505b5091509150610db5828286610dc0565b979650505050505050565b60608315610dcf575081610ab0565b825115610ddf5782518084602001fd5b8160405162461bcd60e51b81526004016102489190611009565b600060208284031215610e0b57600080fd5b5035919050565b6001600160a01b03811681146105c157600080fd5b600060208284031215610e3957600080fd5b8135610ab081610e12565b602080825282518282018190526000919060409081850190868401855b82811015610e8f57815180516001600160a01b03168552860151868501529284019290850190600101610e61565b5091979650505050505050565b634e487b7160e01b600052601160045260246000fd5b60008219821115610ec557610ec5610e9c565b500190565b634e487b7160e01b600052603260045260246000fd5b600060018201610ef257610ef2610e9c565b5060010190565b600081610f0857610f08610e9c565b506000190190565b634e487b7160e01b600052604160045260246000fd5b600060208284031215610f3857600080fd5b8151610ab081610e12565b600082821015610f5557610f55610e9c565b500390565b6000816000190483118215151615610f7457610f74610e9c565b500290565b600082610f9657634e487b7160e01b600052601260045260246000fd5b500490565b600060208284031215610fad57600080fd5b81518015158114610ab057600080fd5b60005b83811015610fd8578181015183820152602001610fc0565b83811115610fe7576000848401525b50505050565b60008251610fff818460208701610fbd565b9190910192915050565b6020815260008251806020840152611028816040850160208701610fbd565b601f01601f1916919091016040019291505056fea2646970667358221220a0cafc0572b7ad8d0963580d619027511f01f49903d6962fb7422dfa0c9b055564736f6c634300080d0033",
      "opcodes": "PUSH1 0xC0 PUSH1 0x40 MSTORE PUSH3 0x186A0 PUSH1 0x1 SSTORE CALLVALUE DUP1 ISZERO PUSH2 0x17 JUMPI PUSH1 0x0 DUP1 REVERT JUMPDEST POP PUSH1 0x40 MLOAD PUSH2 0x1156 CODESIZE SUB DUP1 PUSH2 0x1156 DUP4 CODECOPY DUP2 ADD PUSH1 0x40 DUP2 SWAP1 MSTORE PUSH2 0x36 SWAP2 PUSH2 0x6A JUMP JUMPDEST PUSH1 0x1 PUSH1 0x0 SSTORE PUSH1 0x1 PUSH1 0x1 PUSH1 0xA0 SHL SUB SWAP2 DUP3 AND PUSH1 0xA0 MSTORE AND PUSH1 0x80 MSTORE PUSH2 0xA4 JUMP JUMPDEST PUSH1 0x1 PUSH1 0x1 PUSH1 0xA0 SHL SUB DUP2 AND DUP2 EQ PUSH2 0x67 JUMPI PUSH1 0x0 DUP1 REVERT JUMPDEST POP JUMP JUMPDEST PUSH1 0x0 DUP1 PUSH1 0x40 DUP4 DUP6 SUB SLT ISZERO PUSH2 0x7D JUMPI PUSH1 0x0 DUP1 REVERT JUMPDEST DUP3 MLOAD PUSH2 0x88 DUP2 PUSH2 0x52 JUMP JUMPDEST PUSH1 0x20 DUP5 ADD MLOAD SWAP1 SWAP3 POP PUSH2 0x99 DUP2 PUSH2 0x52 JUMP JUMPDEST DUP1 SWAP2 POP POP SWAP3 POP SWAP3 SWAP1 POP JUMP JUMPDEST PUSH1 0x80 MLOAD PUSH1 0xA0 MLOAD PUSH2 0x1072 PUSH2 0xE4 PUSH1 0x0 CODECOPY PUSH1 0x0 DUP2 DUP2 PUSH1 0xF3 ADD MSTORE DUP2 DUP2 PUSH2 0x47B ADD MSTORE DUP2 DUP2 PUSH2 0x883 ADD MSTORE PUSH2 0x966 ADD MSTORE PUSH1 0x0 DUP2 DUP2 PUSH2 0x1D8 ADD MSTORE PUSH2 0x592 ADD MSTORE PUSH2 0x1072 PUSH1 0x0 RETURN INVALID PUSH1 0x80 PUSH1 0x40 MSTORE CALLVALUE DUP1 ISZERO PUSH2 0x10 JUMPI PUSH1 0x0 DUP1 REVERT JUMPDEST POP PUSH1 0x4 CALLDATASIZE LT PUSH2 0xA3 JUMPI PUSH1 0x0 CALLDATALOAD PUSH1 0xE0 SHR DUP1 PUSH4 0x9168AE72 GT PUSH2 0x76 JUMPI DUP1 PUSH4 0xA694FC3A GT PUSH2 0x5B JUMPI DUP1 PUSH4 0xA694FC3A EQ PUSH2 0x19F JUMPI DUP1 PUSH4 0xC6A8B32E EQ PUSH2 0x1B2 JUMPI DUP1 PUSH4 0xD1AF0C7D EQ PUSH2 0x1D3 JUMPI PUSH1 0x0 DUP1 REVERT JUMPDEST DUP1 PUSH4 0x9168AE72 EQ PUSH2 0x12D JUMPI DUP1 PUSH4 0x94067045 EQ PUSH2 0x176 JUMPI PUSH1 0x0 DUP1 REVERT JUMPDEST DUP1 PUSH4 0x2E1A7D4D EQ PUSH2 0xA8 JUMPI DUP1 PUSH4 0x372500AB EQ PUSH2 0xBD JUMPI DUP1 PUSH4 0x63C28DB1 EQ PUSH2 0xC5 JUMPI DUP1 PUSH4 0x6588103B EQ PUSH2 0xEE JUMPI JUMPDEST PUSH1 0x0 DUP1 REVERT JUMPDEST PUSH2 0xBB PUSH2 0xB6 CALLDATASIZE PUSH1 0x4 PUSH2 0xDF9 JUMP JUMPDEST PUSH2 0x1FA JUMP JUMPDEST STOP JUMPDEST PUSH2 0xBB PUSH2 0x4F5 JUMP JUMPDEST PUSH2 0xD8 PUSH2 0xD3 CALLDATASIZE PUSH1 0x4 PUSH2 0xE27 JUMP JUMPDEST PUSH2 0x5C4 JUMP JUMPDEST PUSH1 0x40 MLOAD PUSH2 0xE5 SWAP2 SWAP1 PUSH2 0xE44 JUMP JUMPDEST PUSH1 0x40 MLOAD DUP1 SWAP2 SUB SWAP1 RETURN JUMPDEST PUSH2 0x115 PUSH32 0x0 DUP2 JUMP JUMPDEST PUSH1 0x40 MLOAD PUSH1 0x1 PUSH1 0x1 PUSH1 0xA0 SHL SUB SWAP1 SWAP2 AND DUP2 MSTORE PUSH1 0x20 ADD PUSH2 0xE5 JUMP JUMPDEST PUSH2 0x15B PUSH2 0x13B CALLDATASIZE PUSH1 0x4 PUSH2 0xE27 JUMP JUMPDEST PUSH1 0x2 PUSH1 0x20 DUP2 SWAP1 MSTORE PUSH1 0x0 SWAP2 DUP3 MSTORE PUSH1 0x40 SWAP1 SWAP2 KECCAK256 DUP1 SLOAD SWAP2 DUP2 ADD SLOAD PUSH1 0x3 SWAP1 SWAP2 ADD SLOAD DUP4 JUMP JUMPDEST PUSH1 0x40 DUP1 MLOAD SWAP4 DUP5 MSTORE PUSH1 0x20 DUP5 ADD SWAP3 SWAP1 SWAP3 MSTORE SWAP1 DUP3 ADD MSTORE PUSH1 0x60 ADD PUSH2 0xE5 JUMP JUMPDEST PUSH2 0x115 PUSH2 0x184 CALLDATASIZE PUSH1 0x4 PUSH2 0xDF9 JUMP JUMPDEST PUSH1 0x3 PUSH1 0x20 MSTORE PUSH1 0x0 SWAP1 DUP2 MSTORE PUSH1 0x40 SWAP1 KECCAK256 SLOAD PUSH1 0x1 PUSH1 0x1 PUSH1 0xA0 SHL SUB AND DUP2 JUMP JUMPDEST PUSH2 0xBB PUSH2 0x1AD CALLDATASIZE PUSH1 0x4 PUSH2 0xDF9 JUMP JUMPDEST PUSH2 0x7BE JUMP JUMPDEST PUSH2 0x1C5 PUSH2 0x1C0 CALLDATASIZE PUSH1 0x4 PUSH2 0xE27 JUMP JUMPDEST PUSH2 0xA7F JUMP JUMPDEST PUSH1 0x40 MLOAD SWAP1 DUP2 MSTORE PUSH1 0x20 ADD PUSH2 0xE5 JUMP JUMPDEST PUSH2 0x115 PUSH32 0x0 DUP2 JUMP JUMPDEST PUSH1 0x2 PUSH1 0x0 SLOAD SUB PUSH2 0x251 JUMPI PUSH1 0x40 MLOAD PUSH3 0x461BCD PUSH1 0xE5 SHL DUP2 MSTORE PUSH1 0x20 PUSH1 0x4 DUP3 ADD MSTORE PUSH1 0x1F PUSH1 0x24 DUP3 ADD MSTORE PUSH32 0x5265656E7472616E637947756172643A207265656E7472616E742063616C6C00 PUSH1 0x44 DUP3 ADD MSTORE PUSH1 0x64 ADD JUMPDEST PUSH1 0x40 MLOAD DUP1 SWAP2 SUB SWAP1 REVERT JUMPDEST PUSH1 0x2 PUSH1 0x0 DUP2 DUP2 SSTORE CALLER DUP2 MSTORE PUSH1 0x20 SWAP2 SWAP1 SWAP2 MSTORE PUSH1 0x40 SWAP1 KECCAK256 SLOAD PUSH2 0x2B2 JUMPI PUSH1 0x40 MLOAD PUSH3 0x461BCD PUSH1 0xE5 SHL DUP2 MSTORE PUSH1 0x20 PUSH1 0x4 DUP3 ADD MSTORE PUSH1 0x19 PUSH1 0x24 DUP3 ADD MSTORE PUSH32 0x596F752068617665206E6F20546F6B656E73207374616B656400000000000000 PUSH1 0x44 DUP3 ADD MSTORE PUSH1 0x64 ADD PUSH2 0x248 JUMP JUMPDEST PUSH1 0x0 DUP2 DUP2 MSTORE PUSH1 0x3 PUSH1 0x20 MSTORE PUSH1 0x40 SWAP1 KECCAK256 SLOAD PUSH1 0x1 PUSH1 0x1 PUSH1 0xA0 SHL SUB AND CALLER EQ PUSH2 0x318 JUMPI PUSH1 0x40 MLOAD PUSH3 0x461BCD PUSH1 0xE5 SHL DUP2 MSTORE PUSH1 0x20 PUSH1 0x4 DUP3 ADD MSTORE PUSH1 0x17 PUSH1 0x24 DUP3 ADD MSTORE PUSH32 0x596F7520646F6E2774206F776E2074686973204E465421000000000000000000 PUSH1 0x44 DUP3 ADD MSTORE PUSH1 0x64 ADD PUSH2 0x248 JUMP JUMPDEST PUSH1 0x0 PUSH2 0x323 CALLER PUSH2 0xAB7 JUMP JUMPDEST CALLER PUSH1 0x0 SWAP1 DUP2 MSTORE PUSH1 0x2 PUSH1 0x20 MSTORE PUSH1 0x40 DUP2 KECCAK256 PUSH1 0x3 ADD DUP1 SLOAD SWAP3 SWAP4 POP DUP4 SWAP3 SWAP1 SWAP2 SWAP1 PUSH2 0x34A SWAP1 DUP5 SWAP1 PUSH2 0xEB2 JUMP JUMPDEST SWAP1 SWAP2 SSTORE POP PUSH1 0x0 SWAP1 POP DUP1 JUMPDEST CALLER PUSH1 0x0 SWAP1 DUP2 MSTORE PUSH1 0x2 PUSH1 0x20 MSTORE PUSH1 0x40 SWAP1 KECCAK256 PUSH1 0x1 ADD SLOAD DUP2 LT ISZERO PUSH2 0x3C6 JUMPI CALLER PUSH1 0x0 SWAP1 DUP2 MSTORE PUSH1 0x2 PUSH1 0x20 MSTORE PUSH1 0x40 SWAP1 KECCAK256 PUSH1 0x1 ADD DUP1 SLOAD DUP6 SWAP2 SWAP1 DUP4 SWAP1 DUP2 LT PUSH2 0x395 JUMPI PUSH2 0x395 PUSH2 0xECA JUMP JUMPDEST SWAP1 PUSH1 0x0 MSTORE PUSH1 0x20 PUSH1 0x0 KECCAK256 SWAP1 PUSH1 0x2 MUL ADD PUSH1 0x1 ADD SLOAD SUB PUSH2 0x3B4 JUMPI DUP1 SWAP2 POP PUSH2 0x3C6 JUMP JUMPDEST DUP1 PUSH2 0x3BE DUP2 PUSH2 0xEE0 JUMP JUMPDEST SWAP2 POP POP PUSH2 0x354 JUMP JUMPDEST POP CALLER PUSH1 0x0 SWAP1 DUP2 MSTORE PUSH1 0x2 PUSH1 0x20 MSTORE PUSH1 0x40 DUP2 KECCAK256 PUSH1 0x1 ADD DUP1 SLOAD DUP4 SWAP1 DUP2 LT PUSH2 0x3EB JUMPI PUSH2 0x3EB PUSH2 0xECA JUMP JUMPDEST PUSH1 0x0 SWAP2 DUP3 MSTORE PUSH1 0x20 DUP1 DUP4 KECCAK256 PUSH1 0x2 SWAP3 DUP4 MUL ADD DUP1 SLOAD PUSH1 0x1 PUSH1 0x1 PUSH1 0xA0 SHL SUB NOT AND PUSH1 0x1 PUSH1 0x1 PUSH1 0xA0 SHL SUB SWAP6 SWAP1 SWAP6 AND SWAP5 SWAP1 SWAP5 OR SWAP1 SWAP4 SSTORE CALLER DUP3 MSTORE SWAP1 SWAP2 MSTORE PUSH1 0x40 DUP2 KECCAK256 DUP1 SLOAD SWAP2 PUSH2 0x430 DUP4 PUSH2 0xEF9 JUMP JUMPDEST SWAP1 SWAP2 SSTORE POP POP PUSH1 0x0 DUP4 DUP2 MSTORE PUSH1 0x3 PUSH1 0x20 MSTORE PUSH1 0x40 SWAP1 DUP2 SWAP1 KECCAK256 DUP1 SLOAD PUSH1 0x1 PUSH1 0x1 PUSH1 0xA0 SHL SUB NOT AND SWAP1 SSTORE MLOAD PUSH4 0x23B872DD PUSH1 0xE0 SHL DUP2 MSTORE ADDRESS PUSH1 0x4 DUP3 ADD MSTORE CALLER PUSH1 0x24 DUP3 ADD MSTORE PUSH1 0x44 DUP2 ADD DUP5 SWAP1 MSTORE PUSH1 0x1 PUSH1 0x1 PUSH1 0xA0 SHL SUB PUSH32 0x0 AND SWAP1 PUSH4 0x23B872DD SWAP1 PUSH1 0x64 ADD PUSH1 0x0 PUSH1 0x40 MLOAD DUP1 DUP4 SUB DUP2 PUSH1 0x0 DUP8 DUP1 EXTCODESIZE ISZERO DUP1 ISZERO PUSH2 0x4BF JUMPI PUSH1 0x0 DUP1 REVERT JUMPDEST POP GAS CALL ISZERO DUP1 ISZERO PUSH2 0x4D3 JUMPI RETURNDATASIZE PUSH1 0x0 DUP1 RETURNDATACOPY RETURNDATASIZE PUSH1 0x0 REVERT JUMPDEST POP POP CALLER PUSH1 0x0 SWAP1 DUP2 MSTORE PUSH1 0x2 PUSH1 0x20 DUP2 SWAP1 MSTORE PUSH1 0x40 DUP3 KECCAK256 TIMESTAMP SWAP2 ADD SSTORE PUSH1 0x1 SWAP1 SSTORE POP POP POP POP POP JUMP JUMPDEST CALLER PUSH1 0x0 DUP2 DUP2 MSTORE PUSH1 0x2 PUSH1 0x20 MSTORE PUSH1 0x40 DUP2 KECCAK256 PUSH1 0x3 ADD SLOAD SWAP1 SWAP2 PUSH2 0x513 SWAP1 PUSH2 0xAB7 JUMP JUMPDEST PUSH2 0x51D SWAP2 SWAP1 PUSH2 0xEB2 JUMP JUMPDEST SWAP1 POP PUSH1 0x0 DUP2 GT PUSH2 0x56F JUMPI PUSH1 0x40 MLOAD PUSH3 0x461BCD PUSH1 0xE5 SHL DUP2 MSTORE PUSH1 0x20 PUSH1 0x4 DUP3 ADD MSTORE PUSH1 0x1C PUSH1 0x24 DUP3 ADD MSTORE PUSH32 0x596F752068617665206E6F207265776172647320746F20636C61696D00000000 PUSH1 0x44 DUP3 ADD MSTORE PUSH1 0x64 ADD PUSH2 0x248 JUMP JUMPDEST CALLER PUSH1 0x0 DUP2 DUP2 MSTORE PUSH1 0x2 PUSH1 0x20 DUP2 SWAP1 MSTORE PUSH1 0x40 DUP3 KECCAK256 TIMESTAMP SWAP2 DUP2 ADD SWAP2 SWAP1 SWAP2 SSTORE PUSH1 0x3 ADD SSTORE PUSH2 0x5C1 SWAP1 PUSH32 0x0 PUSH1 0x1 PUSH1 0x1 PUSH1 0xA0 SHL SUB AND SWAP1 DUP4 PUSH2 0xB10 JUMP JUMPDEST POP JUMP JUMPDEST PUSH1 0x1 PUSH1 0x1 PUSH1 0xA0 SHL SUB DUP2 AND PUSH1 0x0 SWAP1 DUP2 MSTORE PUSH1 0x2 PUSH1 0x20 MSTORE PUSH1 0x40 SWAP1 KECCAK256 SLOAD PUSH1 0x60 SWAP1 ISZERO PUSH2 0x77A JUMPI PUSH1 0x1 PUSH1 0x1 PUSH1 0xA0 SHL SUB DUP3 AND PUSH1 0x0 SWAP1 DUP2 MSTORE PUSH1 0x2 PUSH1 0x20 MSTORE PUSH1 0x40 DUP2 KECCAK256 SLOAD PUSH8 0xFFFFFFFFFFFFFFFF DUP2 GT ISZERO PUSH2 0x616 JUMPI PUSH2 0x616 PUSH2 0xF10 JUMP JUMPDEST PUSH1 0x40 MLOAD SWAP1 DUP1 DUP3 MSTORE DUP1 PUSH1 0x20 MUL PUSH1 0x20 ADD DUP3 ADD PUSH1 0x40 MSTORE DUP1 ISZERO PUSH2 0x65B JUMPI DUP2 PUSH1 0x20 ADD JUMPDEST PUSH1 0x40 DUP1 MLOAD DUP1 DUP3 ADD SWAP1 SWAP2 MSTORE PUSH1 0x0 DUP1 DUP3 MSTORE PUSH1 0x20 DUP3 ADD MSTORE DUP2 MSTORE PUSH1 0x20 ADD SWAP1 PUSH1 0x1 SWAP1 SUB SWAP1 DUP2 PUSH2 0x634 JUMPI SWAP1 POP JUMPDEST POP SWAP1 POP PUSH1 0x0 DUP1 JUMPDEST PUSH1 0x1 PUSH1 0x1 PUSH1 0xA0 SHL SUB DUP6 AND PUSH1 0x0 SWAP1 DUP2 MSTORE PUSH1 0x2 PUSH1 0x20 MSTORE PUSH1 0x40 SWAP1 KECCAK256 PUSH1 0x1 ADD SLOAD DUP2 LT ISZERO PUSH2 0x771 JUMPI PUSH1 0x1 PUSH1 0x1 PUSH1 0xA0 SHL SUB DUP6 AND PUSH1 0x0 SWAP1 DUP2 MSTORE PUSH1 0x2 PUSH1 0x20 MSTORE PUSH1 0x40 DUP2 KECCAK256 PUSH1 0x1 ADD DUP1 SLOAD DUP4 SWAP1 DUP2 LT PUSH2 0x6B2 JUMPI PUSH2 0x6B2 PUSH2 0xECA JUMP JUMPDEST PUSH1 0x0 SWAP2 DUP3 MSTORE PUSH1 0x20 SWAP1 SWAP2 KECCAK256 PUSH1 0x2 SWAP1 SWAP2 MUL ADD SLOAD PUSH1 0x1 PUSH1 0x1 PUSH1 0xA0 SHL SUB AND EQ PUSH2 0x75F JUMPI PUSH1 0x1 PUSH1 0x1 PUSH1 0xA0 SHL SUB DUP6 AND PUSH1 0x0 SWAP1 DUP2 MSTORE PUSH1 0x2 PUSH1 0x20 MSTORE PUSH1 0x40 SWAP1 KECCAK256 PUSH1 0x1 ADD DUP1 SLOAD DUP3 SWAP1 DUP2 LT PUSH2 0x6FE JUMPI PUSH2 0x6FE PUSH2 0xECA JUMP JUMPDEST PUSH1 0x0 SWAP2 DUP3 MSTORE PUSH1 0x20 SWAP2 DUP3 SWAP1 KECCAK256 PUSH1 0x40 DUP1 MLOAD DUP1 DUP3 ADD SWAP1 SWAP2 MSTORE PUSH1 0x2 SWAP1 SWAP3 MUL ADD DUP1 SLOAD PUSH1 0x1 PUSH1 0x1 PUSH1 0xA0 SHL SUB AND DUP3 MSTORE PUSH1 0x1 ADD SLOAD SWAP2 DUP2 ADD SWAP2 SWAP1 SWAP2 MSTORE DUP4 MLOAD DUP5 SWAP1 DUP5 SWAP1 DUP2 LT PUSH2 0x745 JUMPI PUSH2 0x745 PUSH2 0xECA JUMP JUMPDEST PUSH1 0x20 MUL PUSH1 0x20 ADD ADD DUP2 SWAP1 MSTORE POP DUP2 DUP1 PUSH2 0x75B SWAP1 PUSH2 0xEE0 JUMP JUMPDEST SWAP3 POP POP JUMPDEST DUP1 PUSH2 0x769 DUP2 PUSH2 0xEE0 JUMP JUMPDEST SWAP2 POP POP PUSH2 0x662 JUMP JUMPDEST POP SWAP1 SWAP4 SWAP3 POP POP POP JUMP JUMPDEST PUSH1 0x40 DUP1 MLOAD PUSH1 0x0 DUP1 DUP3 MSTORE PUSH1 0x20 DUP3 ADD SWAP1 SWAP3 MSTORE SWAP1 PUSH2 0x7B7 JUMP JUMPDEST PUSH1 0x40 DUP1 MLOAD DUP1 DUP3 ADD SWAP1 SWAP2 MSTORE PUSH1 0x0 DUP1 DUP3 MSTORE PUSH1 0x20 DUP3 ADD MSTORE DUP2 MSTORE PUSH1 0x20 ADD SWAP1 PUSH1 0x1 SWAP1 SUB SWAP1 DUP2 PUSH2 0x790 JUMPI SWAP1 POP JUMPDEST POP SWAP3 SWAP2 POP POP JUMP JUMPDEST PUSH1 0x2 PUSH1 0x0 SLOAD SUB PUSH2 0x810 JUMPI PUSH1 0x40 MLOAD PUSH3 0x461BCD PUSH1 0xE5 SHL DUP2 MSTORE PUSH1 0x20 PUSH1 0x4 DUP3 ADD MSTORE PUSH1 0x1F PUSH1 0x24 DUP3 ADD MSTORE PUSH32 0x5265656E7472616E637947756172643A207265656E7472616E742063616C6C00 PUSH1 0x44 DUP3 ADD MSTORE PUSH1 0x64 ADD PUSH2 0x248 JUMP JUMPDEST PUSH1 0x2 PUSH1 0x0 DUP2 DUP2 SSTORE CALLER DUP2 MSTORE PUSH1 0x20 SWAP2 SWAP1 SWAP2 MSTORE PUSH1 0x40 SWAP1 KECCAK256 SLOAD ISZERO PUSH2 0x863 JUMPI PUSH1 0x0 PUSH2 0x835 CALLER PUSH2 0xAB7 JUMP JUMPDEST CALLER PUSH1 0x0 SWAP1 DUP2 MSTORE PUSH1 0x2 PUSH1 0x20 MSTORE PUSH1 0x40 DUP2 KECCAK256 PUSH1 0x3 ADD DUP1 SLOAD SWAP3 SWAP4 POP DUP4 SWAP3 SWAP1 SWAP2 SWAP1 PUSH2 0x85C SWAP1 DUP5 SWAP1 PUSH2 0xEB2 JUMP JUMPDEST SWAP1 SWAP2 SSTORE POP POP POP JUMPDEST PUSH1 0x40 MLOAD PUSH4 0x31A9108F PUSH1 0xE1 SHL DUP2 MSTORE PUSH1 0x4 DUP2 ADD DUP3 SWAP1 MSTORE CALLER SWAP1 PUSH1 0x1 PUSH1 0x1 PUSH1 0xA0 SHL SUB PUSH32 0x0 AND SWAP1 PUSH4 0x6352211E SWAP1 PUSH1 0x24 ADD PUSH1 0x20 PUSH1 0x40 MLOAD DUP1 DUP4 SUB DUP2 DUP7 GAS STATICCALL ISZERO DUP1 ISZERO PUSH2 0x8CA JUMPI RETURNDATASIZE PUSH1 0x0 DUP1 RETURNDATACOPY RETURNDATASIZE PUSH1 0x0 REVERT JUMPDEST POP POP POP POP PUSH1 0x40 MLOAD RETURNDATASIZE PUSH1 0x1F NOT PUSH1 0x1F DUP3 ADD AND DUP3 ADD DUP1 PUSH1 0x40 MSTORE POP DUP2 ADD SWAP1 PUSH2 0x8EE SWAP2 SWAP1 PUSH2 0xF26 JUMP JUMPDEST PUSH1 0x1 PUSH1 0x1 PUSH1 0xA0 SHL SUB AND EQ PUSH2 0x944 JUMPI PUSH1 0x40 MLOAD PUSH3 0x461BCD PUSH1 0xE5 SHL DUP2 MSTORE PUSH1 0x20 PUSH1 0x4 DUP3 ADD MSTORE PUSH1 0x17 PUSH1 0x24 DUP3 ADD MSTORE PUSH32 0x596F7520646F6E2774206F776E2074686973204E465421000000000000000000 PUSH1 0x44 DUP3 ADD MSTORE PUSH1 0x64 ADD PUSH2 0x248 JUMP JUMPDEST PUSH1 0x40 MLOAD PUSH4 0x23B872DD PUSH1 0xE0 SHL DUP2 MSTORE CALLER PUSH1 0x4 DUP3 ADD MSTORE ADDRESS PUSH1 0x24 DUP3 ADD MSTORE PUSH1 0x44 DUP2 ADD DUP3 SWAP1 MSTORE PUSH32 0x0 PUSH1 0x1 PUSH1 0x1 PUSH1 0xA0 SHL SUB AND SWAP1 PUSH4 0x23B872DD SWAP1 PUSH1 0x64 ADD PUSH1 0x0 PUSH1 0x40 MLOAD DUP1 DUP4 SUB DUP2 PUSH1 0x0 DUP8 DUP1 EXTCODESIZE ISZERO DUP1 ISZERO PUSH2 0x9B2 JUMPI PUSH1 0x0 DUP1 REVERT JUMPDEST POP GAS CALL ISZERO DUP1 ISZERO PUSH2 0x9C6 JUMPI RETURNDATASIZE PUSH1 0x0 DUP1 RETURNDATACOPY RETURNDATASIZE PUSH1 0x0 REVERT JUMPDEST POP POP PUSH1 0x40 DUP1 MLOAD DUP1 DUP3 ADD DUP3 MSTORE CALLER DUP1 DUP3 MSTORE PUSH1 0x20 DUP1 DUP4 ADD DUP8 DUP2 MSTORE PUSH1 0x0 DUP4 DUP2 MSTORE PUSH1 0x2 DUP1 DUP5 MSTORE SWAP6 DUP2 KECCAK256 PUSH1 0x1 DUP1 DUP3 ADD DUP1 SLOAD DUP1 DUP4 ADD DUP3 SSTORE SWAP1 DUP5 MSTORE SWAP5 DUP4 KECCAK256 DUP8 MLOAD SWAP6 SWAP1 SWAP9 MUL SWAP1 SWAP8 ADD DUP1 SLOAD PUSH1 0x1 PUSH1 0x1 PUSH1 0xA0 SHL SUB NOT AND PUSH1 0x1 PUSH1 0x1 PUSH1 0xA0 SHL SUB SWAP1 SWAP6 AND SWAP5 SWAP1 SWAP5 OR DUP5 SSTORE SWAP2 MLOAD SWAP3 SWAP1 SWAP6 ADD SWAP2 SWAP1 SWAP2 SSTORE SWAP1 DUP4 MSTORE DUP1 SLOAD SWAP2 SWAP5 POP SWAP1 SWAP3 POP SWAP1 PUSH2 0xA41 DUP4 PUSH2 0xEE0 JUMP JUMPDEST SWAP1 SWAP2 SSTORE POP POP POP PUSH1 0x0 SWAP1 DUP2 MSTORE PUSH1 0x3 PUSH1 0x20 SWAP1 DUP2 MSTORE PUSH1 0x40 DUP1 DUP4 KECCAK256 DUP1 SLOAD PUSH1 0x1 PUSH1 0x1 PUSH1 0xA0 SHL SUB NOT AND CALLER SWAP1 DUP2 OR SWAP1 SWAP2 SSTORE DUP4 MSTORE PUSH1 0x2 SWAP2 DUP3 SWAP1 MSTORE DUP3 KECCAK256 TIMESTAMP SWAP2 ADD SSTORE PUSH1 0x1 SWAP1 SSTORE JUMP JUMPDEST PUSH1 0x1 PUSH1 0x1 PUSH1 0xA0 SHL SUB DUP2 AND PUSH1 0x0 SWAP1 DUP2 MSTORE PUSH1 0x2 PUSH1 0x20 MSTORE PUSH1 0x40 DUP2 KECCAK256 PUSH1 0x3 ADD SLOAD DUP2 SWAP1 PUSH2 0xAA6 DUP5 PUSH2 0xAB7 JUMP JUMPDEST PUSH2 0xAB0 SWAP2 SWAP1 PUSH2 0xEB2 JUMP JUMPDEST SWAP4 SWAP3 POP POP POP JUMP JUMPDEST PUSH1 0x1 SLOAD PUSH1 0x1 PUSH1 0x1 PUSH1 0xA0 SHL SUB DUP3 AND PUSH1 0x0 SWAP1 DUP2 MSTORE PUSH1 0x2 PUSH1 0x20 DUP2 SWAP1 MSTORE PUSH1 0x40 DUP3 KECCAK256 DUP1 SLOAD SWAP2 ADD SLOAD SWAP2 SWAP3 PUSH2 0xE10 SWAP3 SWAP1 SWAP2 SWAP1 PUSH2 0xAEC SWAP1 TIMESTAMP PUSH2 0xF43 JUMP JUMPDEST PUSH2 0xAF6 SWAP2 SWAP1 PUSH2 0xF5A JUMP JUMPDEST PUSH2 0xB00 SWAP2 SWAP1 PUSH2 0xF5A JUMP JUMPDEST PUSH2 0xB0A SWAP2 SWAP1 PUSH2 0xF79 JUMP JUMPDEST SWAP3 SWAP2 POP POP JUMP JUMPDEST PUSH1 0x40 DUP1 MLOAD PUSH1 0x1 PUSH1 0x1 PUSH1 0xA0 SHL SUB DUP5 AND PUSH1 0x24 DUP3 ADD MSTORE PUSH1 0x44 DUP1 DUP3 ADD DUP5 SWAP1 MSTORE DUP3 MLOAD DUP1 DUP4 SUB SWAP1 SWAP2 ADD DUP2 MSTORE PUSH1 0x64 SWAP1 SWAP2 ADD SWAP1 SWAP2 MSTORE PUSH1 0x20 DUP2 ADD DUP1 MLOAD PUSH28 0xFFFFFFFFFFFFFFFFFFFFFFFFFFFFFFFFFFFFFFFFFFFFFFFFFFFFFFFF AND PUSH4 0xA9059CBB PUSH1 0xE0 SHL OR SWAP1 MSTORE PUSH2 0xB77 SWAP1 DUP5 SWAP1 PUSH2 0xB7C JUMP JUMPDEST POP POP POP JUMP JUMPDEST PUSH1 0x0 PUSH2 0xBD1 DUP3 PUSH1 0x40 MLOAD DUP1 PUSH1 0x40 ADD PUSH1 0x40 MSTORE DUP1 PUSH1 0x20 DUP2 MSTORE PUSH1 0x20 ADD PUSH32 0x5361666545524332303A206C6F772D6C6576656C2063616C6C206661696C6564 DUP2 MSTORE POP DUP6 PUSH1 0x1 PUSH1 0x1 PUSH1 0xA0 SHL SUB AND PUSH2 0xC61 SWAP1 SWAP3 SWAP2 SWAP1 PUSH4 0xFFFFFFFF AND JUMP JUMPDEST DUP1 MLOAD SWAP1 SWAP2 POP ISZERO PUSH2 0xB77 JUMPI DUP1 DUP1 PUSH1 0x20 ADD SWAP1 MLOAD DUP2 ADD SWAP1 PUSH2 0xBEF SWAP2 SWAP1 PUSH2 0xF9B JUMP JUMPDEST PUSH2 0xB77 JUMPI PUSH1 0x40 MLOAD PUSH3 0x461BCD PUSH1 0xE5 SHL DUP2 MSTORE PUSH1 0x20 PUSH1 0x4 DUP3 ADD MSTORE PUSH1 0x2A PUSH1 0x24 DUP3 ADD MSTORE PUSH32 0x5361666545524332303A204552433230206F7065726174696F6E20646964206E PUSH1 0x44 DUP3 ADD MSTORE PUSH32 0x6F74207375636365656400000000000000000000000000000000000000000000 PUSH1 0x64 DUP3 ADD MSTORE PUSH1 0x84 ADD PUSH2 0x248 JUMP JUMPDEST PUSH1 0x60 PUSH2 0xC70 DUP5 DUP5 PUSH1 0x0 DUP6 PUSH2 0xC78 JUMP JUMPDEST SWAP5 SWAP4 POP POP POP POP JUMP JUMPDEST PUSH1 0x60 DUP3 SELFBALANCE LT ISZERO PUSH2 0xCF0 JUMPI PUSH1 0x40 MLOAD PUSH3 0x461BCD PUSH1 0xE5 SHL DUP2 MSTORE PUSH1 0x20 PUSH1 0x4 DUP3 ADD MSTORE PUSH1 0x26 PUSH1 0x24 DUP3 ADD MSTORE PUSH32 0x416464726573733A20696E73756666696369656E742062616C616E636520666F PUSH1 0x44 DUP3 ADD MSTORE PUSH32 0x722063616C6C0000000000000000000000000000000000000000000000000000 PUSH1 0x64 DUP3 ADD MSTORE PUSH1 0x84 ADD PUSH2 0x248 JUMP JUMPDEST PUSH1 0x1 PUSH1 0x1 PUSH1 0xA0 SHL SUB DUP6 AND EXTCODESIZE PUSH2 0xD47 JUMPI PUSH1 0x40 MLOAD PUSH3 0x461BCD PUSH1 0xE5 SHL DUP2 MSTORE PUSH1 0x20 PUSH1 0x4 DUP3 ADD MSTORE PUSH1 0x1D PUSH1 0x24 DUP3 ADD MSTORE PUSH32 0x416464726573733A2063616C6C20746F206E6F6E2D636F6E7472616374000000 PUSH1 0x44 DUP3 ADD MSTORE PUSH1 0x64 ADD PUSH2 0x248 JUMP JUMPDEST PUSH1 0x0 DUP1 DUP7 PUSH1 0x1 PUSH1 0x1 PUSH1 0xA0 SHL SUB AND DUP6 DUP8 PUSH1 0x40 MLOAD PUSH2 0xD63 SWAP2 SWAP1 PUSH2 0xFED JUMP JUMPDEST PUSH1 0x0 PUSH1 0x40 MLOAD DUP1 DUP4 SUB DUP2 DUP6 DUP8 GAS CALL SWAP3 POP POP POP RETURNDATASIZE DUP1 PUSH1 0x0 DUP2 EQ PUSH2 0xDA0 JUMPI PUSH1 0x40 MLOAD SWAP2 POP PUSH1 0x1F NOT PUSH1 0x3F RETURNDATASIZE ADD AND DUP3 ADD PUSH1 0x40 MSTORE RETURNDATASIZE DUP3 MSTORE RETURNDATASIZE PUSH1 0x0 PUSH1 0x20 DUP5 ADD RETURNDATACOPY PUSH2 0xDA5 JUMP JUMPDEST PUSH1 0x60 SWAP2 POP JUMPDEST POP SWAP2 POP SWAP2 POP PUSH2 0xDB5 DUP3 DUP3 DUP7 PUSH2 0xDC0 JUMP JUMPDEST SWAP8 SWAP7 POP POP POP POP POP POP POP JUMP JUMPDEST PUSH1 0x60 DUP4 ISZERO PUSH2 0xDCF JUMPI POP DUP2 PUSH2 0xAB0 JUMP JUMPDEST DUP3 MLOAD ISZERO PUSH2 0xDDF JUMPI DUP3 MLOAD DUP1 DUP5 PUSH1 0x20 ADD REVERT JUMPDEST DUP2 PUSH1 0x40 MLOAD PUSH3 0x461BCD PUSH1 0xE5 SHL DUP2 MSTORE PUSH1 0x4 ADD PUSH2 0x248 SWAP2 SWAP1 PUSH2 0x1009 JUMP JUMPDEST PUSH1 0x0 PUSH1 0x20 DUP3 DUP5 SUB SLT ISZERO PUSH2 0xE0B JUMPI PUSH1 0x0 DUP1 REVERT JUMPDEST POP CALLDATALOAD SWAP2 SWAP1 POP JUMP JUMPDEST PUSH1 0x1 PUSH1 0x1 PUSH1 0xA0 SHL SUB DUP2 AND DUP2 EQ PUSH2 0x5C1 JUMPI PUSH1 0x0 DUP1 REVERT JUMPDEST PUSH1 0x0 PUSH1 0x20 DUP3 DUP5 SUB SLT ISZERO PUSH2 0xE39 JUMPI PUSH1 0x0 DUP1 REVERT JUMPDEST DUP2 CALLDATALOAD PUSH2 0xAB0 DUP2 PUSH2 0xE12 JUMP JUMPDEST PUSH1 0x20 DUP1 DUP3 MSTORE DUP3 MLOAD DUP3 DUP3 ADD DUP2 SWAP1 MSTORE PUSH1 0x0 SWAP2 SWAP1 PUSH1 0x40 SWAP1 DUP2 DUP6 ADD SWAP1 DUP7 DUP5 ADD DUP6 JUMPDEST DUP3 DUP2 LT ISZERO PUSH2 0xE8F JUMPI DUP2 MLOAD DUP1 MLOAD PUSH1 0x1 PUSH1 0x1 PUSH1 0xA0 SHL SUB AND DUP6 MSTORE DUP7 ADD MLOAD DUP7 DUP6 ADD MSTORE SWAP3 DUP5 ADD SWAP3 SWAP1 DUP6 ADD SWAP1 PUSH1 0x1 ADD PUSH2 0xE61 JUMP JUMPDEST POP SWAP2 SWAP8 SWAP7 POP POP POP POP POP POP POP JUMP JUMPDEST PUSH4 0x4E487B71 PUSH1 0xE0 SHL PUSH1 0x0 MSTORE PUSH1 0x11 PUSH1 0x4 MSTORE PUSH1 0x24 PUSH1 0x0 REVERT JUMPDEST PUSH1 0x0 DUP3 NOT DUP3 GT ISZERO PUSH2 0xEC5 JUMPI PUSH2 0xEC5 PUSH2 0xE9C JUMP JUMPDEST POP ADD SWAP1 JUMP JUMPDEST PUSH4 0x4E487B71 PUSH1 0xE0 SHL PUSH1 0x0 MSTORE PUSH1 0x32 PUSH1 0x4 MSTORE PUSH1 0x24 PUSH1 0x0 REVERT JUMPDEST PUSH1 0x0 PUSH1 0x1 DUP3 ADD PUSH2 0xEF2 JUMPI PUSH2 0xEF2 PUSH2 0xE9C JUMP JUMPDEST POP PUSH1 0x1 ADD SWAP1 JUMP JUMPDEST PUSH1 0x0 DUP2 PUSH2 0xF08 JUMPI PUSH2 0xF08 PUSH2 0xE9C JUMP JUMPDEST POP PUSH1 0x0 NOT ADD SWAP1 JUMP JUMPDEST PUSH4 0x4E487B71 PUSH1 0xE0 SHL PUSH1 0x0 MSTORE PUSH1 0x41 PUSH1 0x4 MSTORE PUSH1 0x24 PUSH1 0x0 REVERT JUMPDEST PUSH1 0x0 PUSH1 0x20 DUP3 DUP5 SUB SLT ISZERO PUSH2 0xF38 JUMPI PUSH1 0x0 DUP1 REVERT JUMPDEST DUP2 MLOAD PUSH2 0xAB0 DUP2 PUSH2 0xE12 JUMP JUMPDEST PUSH1 0x0 DUP3 DUP3 LT ISZERO PUSH2 0xF55 JUMPI PUSH2 0xF55 PUSH2 0xE9C JUMP JUMPDEST POP SUB SWAP1 JUMP JUMPDEST PUSH1 0x0 DUP2 PUSH1 0x0 NOT DIV DUP4 GT DUP3 ISZERO ISZERO AND ISZERO PUSH2 0xF74 JUMPI PUSH2 0xF74 PUSH2 0xE9C JUMP JUMPDEST POP MUL SWAP1 JUMP JUMPDEST PUSH1 0x0 DUP3 PUSH2 0xF96 JUMPI PUSH4 0x4E487B71 PUSH1 0xE0 SHL PUSH1 0x0 MSTORE PUSH1 0x12 PUSH1 0x4 MSTORE PUSH1 0x24 PUSH1 0x0 REVERT JUMPDEST POP DIV SWAP1 JUMP JUMPDEST PUSH1 0x0 PUSH1 0x20 DUP3 DUP5 SUB SLT ISZERO PUSH2 0xFAD JUMPI PUSH1 0x0 DUP1 REVERT JUMPDEST DUP2 MLOAD DUP1 ISZERO ISZERO DUP2 EQ PUSH2 0xAB0 JUMPI PUSH1 0x0 DUP1 REVERT JUMPDEST PUSH1 0x0 JUMPDEST DUP4 DUP2 LT ISZERO PUSH2 0xFD8 JUMPI DUP2 DUP2 ADD MLOAD DUP4 DUP3 ADD MSTORE PUSH1 0x20 ADD PUSH2 0xFC0 JUMP JUMPDEST DUP4 DUP2 GT ISZERO PUSH2 0xFE7 JUMPI PUSH1 0x0 DUP5 DUP5 ADD MSTORE JUMPDEST POP POP POP POP JUMP JUMPDEST PUSH1 0x0 DUP3 MLOAD PUSH2 0xFFF DUP2 DUP5 PUSH1 0x20 DUP8 ADD PUSH2 0xFBD JUMP JUMPDEST SWAP2 SWAP1 SWAP2 ADD SWAP3 SWAP2 POP POP JUMP JUMPDEST PUSH1 0x20 DUP2 MSTORE PUSH1 0x0 DUP3 MLOAD DUP1 PUSH1 0x20 DUP5 ADD MSTORE PUSH2 0x1028 DUP2 PUSH1 0x40 DUP6 ADD PUSH1 0x20 DUP8 ADD PUSH2 0xFBD JUMP JUMPDEST PUSH1 0x1F ADD PUSH1 0x1F NOT AND SWAP2 SWAP1 SWAP2 ADD PUSH1 0x40 ADD SWAP3 SWAP2 POP POP JUMP INVALID LOG2 PUSH5 0x6970667358 0x22 SLT KECCAK256 LOG0 0xCA 0xFC SDIV PUSH19 0xB7AD8D0963580D619027511F01F49903D6962F 0xB7 TIMESTAMP 0x2D STATICCALL 0xC SWAP12 SDIV SSTORE PUSH5 0x736F6C6343 STOP ADDMOD 0xD STOP CALLER "
    },
    "gasEstimates": {
      "creation": {
        "codeDepositCost": "842000",
        "executionCost": "infinite",
        "totalCost": "infinite"
      },
      "external": {
        "avialabeRewards(address)": "infinite",
        "claimRewards()": "infinite",
        "getStakedTokens(address)": "infinite",
        "nftCollection()": "infinite",
        "rewardsToken()": "infinite",
        "stake(uint256)": "infinite",
        "stakerAddress(uint256)": "2522",
        "stakers(address)": "6811",
        "withdraw(uint256)": "infinite"
      },
      "internal": {
        "calculateRewards(address)": "infinite"
      }
    },
    "methodIdentifiers": {
      "avialabeRewards(address)": "c6a8b32e",
      "claimRewards()": "372500ab",
      "getStakedTokens(address)": "63c28db1",
      "nftCollection()": "6588103b",
      "rewardsToken()": "d1af0c7d",
      "stake(uint256)": "a694fc3a",
      "stakerAddress(uint256)": "94067045",
      "stakers(address)": "9168ae72",
      "withdraw(uint256)": "2e1a7d4d"
    }
  },
  "storageLayout": {
    "storage": [
      {
        "astId": 496,
        "contract": "NFTstaking.sol:ERC721staking",
        "label": "_status",
        "offset": 0,
        "slot": "0",
        "type": "t_uint256"
      },
      {
        "astId": 54,
        "contract": "NFTstaking.sol:ERC721staking",
        "label": "rewardsPerHour",
        "offset": 0,
        "slot": "1",
        "type": "t_uint256"
      },
      {
        "astId": 59,
        "contract": "NFTstaking.sol:ERC721staking",
        "label": "stakers",
        "offset": 0,
        "slot": "2",
        "type": "t_mapping(t_address,t_struct(Staker)51_storage)"
      },
      {
        "astId": 63,
        "contract": "NFTstaking.sol:ERC721staking",
        "label": "stakerAddress",
        "offset": 0,
        "slot": "3",
        "type": "t_mapping(t_uint256,t_address)"
      }
    ],
    "types": {
      "t_address": {
        "encoding": "inplace",
        "label": "address",
        "numberOfBytes": "20"
      },
      "t_array(t_struct(StakedToken)40_storage)dyn_storage": {
        "base": "t_struct(StakedToken)40_storage",
        "encoding": "dynamic_array",
        "label": "struct ERC721staking.StakedToken[]",
        "numberOfBytes": "32"
      },
      "t_mapping(t_address,t_struct(Staker)51_storage)": {
        "encoding": "mapping",
        "key": "t_address",
        "label": "mapping(address => struct ERC721staking.Staker)",
        "numberOfBytes": "32",
        "value": "t_struct(Staker)51_storage"
      },
      "t_mapping(t_uint256,t_address)": {
        "encoding": "mapping",
        "key": "t_uint256",
        "label": "mapping(uint256 => address)",
        "numberOfBytes": "32",
        "value": "t_address"
      },
      "t_struct(StakedToken)40_storage": {
        "encoding": "inplace",
        "label": "struct ERC721staking.StakedToken",
        "members": [
          {
            "astId": 37,
            "contract": "NFTstaking.sol:ERC721staking",
            "label": "Staker",
            "offset": 0,
            "slot": "0",
            "type": "t_address"
          },
          {
            "astId": 39,
            "contract": "NFTstaking.sol:ERC721staking",
            "label": "tokenId",
            "offset": 0,
            "slot": "1",
            "type": "t_uint256"
          }
        ],
        "numberOfBytes": "64"
      },
      "t_struct(Staker)51_storage": {
        "encoding": "inplace",
        "label": "struct ERC721staking.Staker",
        "members": [
          {
            "astId": 42,
            "contract": "NFTstaking.sol:ERC721staking",
            "label": "amountStaked",
            "offset": 0,
            "slot": "0",
            "type": "t_uint256"
          },
          {
            "astId": 46,
            "contract": "NFTstaking.sol:ERC721staking",
            "label": "stakedTokens",
            "offset": 0,
            "slot": "1",
            "type": "t_array(t_struct(StakedToken)40_storage)dyn_storage"
          },
          {
            "astId": 48,
            "contract": "NFTstaking.sol:ERC721staking",
            "label": "timeOfLastUpdate",
            "offset": 0,
            "slot": "2",
            "type": "t_uint256"
          },
          {
            "astId": 50,
            "contract": "NFTstaking.sol:ERC721staking",
            "label": "unclaimedRewards",
            "offset": 0,
            "slot": "3",
            "type": "t_uint256"
          }
        ],
        "numberOfBytes": "128"
      },
      "t_uint256": {
        "encoding": "inplace",
        "label": "uint256",
        "numberOfBytes": "32"
      }
    }
  },
  "userdoc": {
    "kind": "user",
    "methods": {},
    "version": 1
  }
}